{
  "_format": "hh-sol-artifact-1",
  "contractName": "Croats",
  "sourceName": "contracts/Croats.sol",
  "abi": [
    {
      "inputs": [
        {
          "internalType": "string",
          "name": "base",
          "type": "string"
        },
        {
          "internalType": "string",
          "name": "BRDbase",
          "type": "string"
        },
        {
          "internalType": "string",
          "name": "BAMbase",
          "type": "string"
        }
      ],
      "stateMutability": "nonpayable",
      "type": "constructor"
    },
    {
      "inputs": [],
      "name": "BAMCounterOverflow",
      "type": "error"
    },
    {
      "inputs": [],
      "name": "BAMFinalStateActiviated",
      "type": "error"
    },
    {
      "inputs": [],
      "name": "BRDActiviated",
      "type": "error"
    },
    {
      "inputs": [],
      "name": "BRDAlreadyActiviated",
      "type": "error"
    },
    {
      "inputs": [],
      "name": "BRDNotActiviated",
      "type": "error"
    },
    {
      "inputs": [],
      "name": "URIQueryForNonexistentToken",
      "type": "error"
    },
    {
      "anonymous": false,
      "inputs": [
        {
          "indexed": true,
          "internalType": "address",
          "name": "owner",
          "type": "address"
        },
        {
          "indexed": true,
          "internalType": "address",
          "name": "approved",
          "type": "address"
        },
        {
          "indexed": true,
          "internalType": "uint256",
          "name": "tokenId",
          "type": "uint256"
        }
      ],
      "name": "Approval",
      "type": "event"
    },
    {
      "anonymous": false,
      "inputs": [
        {
          "indexed": true,
          "internalType": "address",
          "name": "owner",
          "type": "address"
        },
        {
          "indexed": true,
          "internalType": "address",
          "name": "operator",
          "type": "address"
        },
        {
          "indexed": false,
          "internalType": "bool",
          "name": "approved",
          "type": "bool"
        }
      ],
      "name": "ApprovalForAll",
      "type": "event"
    },
    {
      "anonymous": false,
      "inputs": [
        {
          "indexed": true,
          "internalType": "address",
          "name": "previousOwner",
          "type": "address"
        },
        {
          "indexed": true,
          "internalType": "address",
          "name": "newOwner",
          "type": "address"
        }
      ],
      "name": "OwnershipTransferred",
      "type": "event"
    },
    {
      "anonymous": false,
      "inputs": [
        {
          "indexed": true,
          "internalType": "address",
          "name": "_from",
          "type": "address"
        },
        {
          "indexed": false,
          "internalType": "uint256",
          "name": "_tokenId",
          "type": "uint256"
        },
        {
          "indexed": false,
          "internalType": "string",
          "name": "message",
          "type": "string"
        }
      ],
      "name": "TokenBurned",
      "type": "event"
    },
    {
      "anonymous": false,
      "inputs": [
        {
          "indexed": true,
          "internalType": "address",
          "name": "_from",
          "type": "address"
        },
        {
          "indexed": false,
          "internalType": "uint256",
          "name": "_tokenId",
          "type": "uint256"
        },
        {
          "indexed": false,
          "internalType": "string",
          "name": "message",
          "type": "string"
        }
      ],
      "name": "TokenChangedState",
      "type": "event"
    },
    {
      "anonymous": false,
      "inputs": [
        {
          "indexed": true,
          "internalType": "address",
          "name": "from",
          "type": "address"
        },
        {
          "indexed": true,
          "internalType": "address",
          "name": "to",
          "type": "address"
        },
        {
          "indexed": true,
          "internalType": "uint256",
          "name": "tokenId",
          "type": "uint256"
        }
      ],
      "name": "Transfer",
      "type": "event"
    },
    {
      "inputs": [],
      "name": "METADATA_PROVENANCE_HASH",
      "outputs": [
        {
          "internalType": "string",
          "name": "",
          "type": "string"
        }
      ],
      "stateMutability": "view",
      "type": "function"
    },
    {
      "inputs": [
        {
          "internalType": "address",
          "name": "to",
          "type": "address"
        },
        {
          "internalType": "uint256",
          "name": "tokenId",
          "type": "uint256"
        }
      ],
      "name": "approve",
      "outputs": [],
      "stateMutability": "nonpayable",
      "type": "function"
    },
    {
      "inputs": [
        {
          "internalType": "address",
          "name": "owner",
          "type": "address"
        }
      ],
      "name": "balanceOf",
      "outputs": [
        {
          "internalType": "uint256",
          "name": "",
          "type": "uint256"
        }
      ],
      "stateMutability": "view",
      "type": "function"
    },
    {
      "inputs": [
        {
          "internalType": "uint256",
          "name": "tokenId",
          "type": "uint256"
        }
      ],
      "name": "burn",
      "outputs": [],
      "stateMutability": "nonpayable",
      "type": "function"
    },
    {
      "inputs": [
        {
          "internalType": "uint256",
          "name": "tokenId",
          "type": "uint256"
        }
      ],
      "name": "burnAdvanceMutate",
      "outputs": [],
      "stateMutability": "nonpayable",
      "type": "function"
    },
    {
      "inputs": [
        {
          "internalType": "uint256",
          "name": "tokenId",
          "type": "uint256"
        }
      ],
      "name": "burnRegressDilute",
      "outputs": [],
      "stateMutability": "nonpayable",
      "type": "function"
    },
    {
      "inputs": [
        {
          "internalType": "uint256",
          "name": "tokenId",
          "type": "uint256"
        }
      ],
      "name": "burnResurect",
      "outputs": [],
      "stateMutability": "nonpayable",
      "type": "function"
    },
    {
      "inputs": [
        {
          "internalType": "address",
          "name": "apocalypse",
          "type": "address"
        }
      ],
      "name": "destroy",
      "outputs": [],
      "stateMutability": "nonpayable",
      "type": "function"
    },
    {
      "inputs": [
        {
          "internalType": "uint256",
          "name": "tokenId",
          "type": "uint256"
        }
      ],
      "name": "getApproved",
      "outputs": [
        {
          "internalType": "address",
          "name": "",
          "type": "address"
        }
      ],
      "stateMutability": "view",
      "type": "function"
    },
    {
      "inputs": [
        {
          "internalType": "address",
          "name": "owner",
          "type": "address"
        },
        {
          "internalType": "address",
          "name": "operator",
          "type": "address"
        }
      ],
      "name": "isApprovedForAll",
      "outputs": [
        {
          "internalType": "bool",
          "name": "",
          "type": "bool"
        }
      ],
      "stateMutability": "view",
      "type": "function"
    },
    {
      "inputs": [],
      "name": "maxBAMTokenSupply",
      "outputs": [
        {
          "internalType": "uint256",
          "name": "",
          "type": "uint256"
        }
      ],
      "stateMutability": "view",
      "type": "function"
    },
    {
      "inputs": [],
      "name": "maxPerWallet",
      "outputs": [
        {
          "internalType": "uint256",
          "name": "",
          "type": "uint256"
        }
      ],
      "stateMutability": "view",
      "type": "function"
    },
    {
      "inputs": [],
      "name": "maxTokenSupply",
      "outputs": [
        {
          "internalType": "uint256",
          "name": "",
          "type": "uint256"
        }
      ],
      "stateMutability": "view",
      "type": "function"
    },
    {
      "inputs": [
        {
          "internalType": "uint256",
          "name": "quantity",
          "type": "uint256"
        }
      ],
      "name": "mint",
      "outputs": [],
      "stateMutability": "payable",
      "type": "function"
    },
    {
      "inputs": [
        {
          "internalType": "address",
          "name": "",
          "type": "address"
        }
      ],
      "name": "mintedPerAddress",
      "outputs": [
        {
          "internalType": "uint256",
          "name": "",
          "type": "uint256"
        }
      ],
      "stateMutability": "view",
      "type": "function"
    },
    {
      "inputs": [],
      "name": "name",
      "outputs": [
        {
          "internalType": "string",
          "name": "",
          "type": "string"
        }
      ],
      "stateMutability": "view",
      "type": "function"
    },
    {
      "inputs": [],
      "name": "owner",
      "outputs": [
        {
          "internalType": "address",
          "name": "",
          "type": "address"
        }
      ],
      "stateMutability": "view",
      "type": "function"
    },
    {
      "inputs": [
        {
          "internalType": "uint256",
          "name": "tokenId",
          "type": "uint256"
        }
      ],
      "name": "ownerOf",
      "outputs": [
        {
          "internalType": "address",
          "name": "",
          "type": "address"
        }
      ],
      "stateMutability": "view",
      "type": "function"
    },
    {
      "inputs": [],
      "name": "prefillIDs",
      "outputs": [],
      "stateMutability": "nonpayable",
      "type": "function"
    },
    {
      "inputs": [],
      "name": "price",
      "outputs": [
        {
          "internalType": "uint256",
          "name": "",
          "type": "uint256"
        }
      ],
      "stateMutability": "view",
      "type": "function"
    },
    {
      "inputs": [
        {
          "internalType": "uint256",
          "name": "index",
          "type": "uint256"
        }
      ],
      "name": "removeFromBAMIDrepo",
      "outputs": [],
      "stateMutability": "nonpayable",
      "type": "function"
    },
    {
      "inputs": [
        {
          "internalType": "uint256",
          "name": "index",
          "type": "uint256"
        }
      ],
      "name": "removeFromBRDIDrepo",
      "outputs": [],
      "stateMutability": "nonpayable",
      "type": "function"
    },
    {
      "inputs": [
        {
          "internalType": "uint256",
          "name": "index",
          "type": "uint256"
        }
      ],
      "name": "removeFromIDrepo",
      "outputs": [],
      "stateMutability": "nonpayable",
      "type": "function"
    },
    {
      "inputs": [],
      "name": "renounceOwnership",
      "outputs": [],
      "stateMutability": "nonpayable",
      "type": "function"
    },
    {
      "inputs": [
        {
          "internalType": "uint256",
          "name": "_tokenId",
          "type": "uint256"
        },
        {
          "internalType": "uint256",
          "name": "_salePrice",
          "type": "uint256"
        }
      ],
      "name": "royaltyInfo",
      "outputs": [
        {
          "internalType": "address",
          "name": "",
          "type": "address"
        },
        {
          "internalType": "uint256",
          "name": "",
          "type": "uint256"
        }
      ],
      "stateMutability": "view",
      "type": "function"
    },
    {
      "inputs": [
        {
          "internalType": "address",
          "name": "from",
          "type": "address"
        },
        {
          "internalType": "address",
          "name": "to",
          "type": "address"
        },
        {
          "internalType": "uint256",
          "name": "tokenId",
          "type": "uint256"
        }
      ],
      "name": "safeTransferFrom",
      "outputs": [],
      "stateMutability": "nonpayable",
      "type": "function"
    },
    {
      "inputs": [
        {
          "internalType": "address",
          "name": "from",
          "type": "address"
        },
        {
          "internalType": "address",
          "name": "to",
          "type": "address"
        },
        {
          "internalType": "uint256",
          "name": "tokenId",
          "type": "uint256"
        },
        {
          "internalType": "bytes",
          "name": "data",
          "type": "bytes"
        }
      ],
      "name": "safeTransferFrom",
      "outputs": [],
      "stateMutability": "nonpayable",
      "type": "function"
    },
    {
      "inputs": [
        {
          "internalType": "address",
          "name": "operator",
          "type": "address"
        },
        {
          "internalType": "bool",
          "name": "approved",
          "type": "bool"
        }
      ],
      "name": "setApprovalForAll",
      "outputs": [],
      "stateMutability": "nonpayable",
      "type": "function"
    },
    {
      "inputs": [
        {
          "internalType": "string",
          "name": "a",
          "type": "string"
        }
      ],
      "name": "setBAMMetadataUri",
      "outputs": [],
      "stateMutability": "nonpayable",
      "type": "function"
    },
    {
      "inputs": [
        {
          "internalType": "string",
          "name": "a",
          "type": "string"
        }
      ],
      "name": "setBRDMetadataUri",
      "outputs": [],
      "stateMutability": "nonpayable",
      "type": "function"
    },
    {
      "inputs": [
        {
          "internalType": "string",
          "name": "a",
          "type": "string"
        }
      ],
      "name": "setBaseMetadataUri",
      "outputs": [],
      "stateMutability": "nonpayable",
      "type": "function"
    },
    {
      "inputs": [
        {
          "internalType": "string",
          "name": "_hash",
          "type": "string"
        }
      ],
      "name": "setProvenanceHash",
      "outputs": [],
      "stateMutability": "nonpayable",
      "type": "function"
    },
    {
      "inputs": [
        {
          "internalType": "bytes4",
          "name": "interfaceId",
          "type": "bytes4"
        }
      ],
      "name": "supportsInterface",
      "outputs": [
        {
          "internalType": "bool",
          "name": "",
          "type": "bool"
        }
      ],
      "stateMutability": "view",
      "type": "function"
    },
    {
      "inputs": [],
      "name": "symbol",
      "outputs": [
        {
          "internalType": "string",
          "name": "",
          "type": "string"
        }
      ],
      "stateMutability": "view",
      "type": "function"
    },
    {
      "inputs": [
        {
          "internalType": "uint256",
          "name": "index",
          "type": "uint256"
        }
      ],
      "name": "tokenByIndex",
      "outputs": [
        {
          "internalType": "uint256",
          "name": "",
          "type": "uint256"
        }
      ],
      "stateMutability": "view",
      "type": "function"
    },
    {
      "inputs": [
        {
          "internalType": "address",
          "name": "owner",
          "type": "address"
        },
        {
          "internalType": "uint256",
          "name": "index",
          "type": "uint256"
        }
      ],
      "name": "tokenOfOwnerByIndex",
      "outputs": [
        {
          "internalType": "uint256",
          "name": "",
          "type": "uint256"
        }
      ],
      "stateMutability": "view",
      "type": "function"
    },
    {
      "inputs": [
        {
          "internalType": "uint256",
          "name": "tokenId",
          "type": "uint256"
        }
      ],
      "name": "tokenURI",
      "outputs": [
        {
          "internalType": "string",
          "name": "",
          "type": "string"
        }
      ],
      "stateMutability": "view",
      "type": "function"
    },
    {
      "inputs": [],
      "name": "totalSupply",
      "outputs": [
        {
          "internalType": "uint256",
          "name": "",
          "type": "uint256"
        }
      ],
      "stateMutability": "view",
      "type": "function"
    },
    {
      "inputs": [
        {
          "internalType": "address",
          "name": "from",
          "type": "address"
        },
        {
          "internalType": "address",
          "name": "to",
          "type": "address"
        },
        {
          "internalType": "uint256",
          "name": "tokenId",
          "type": "uint256"
        }
      ],
      "name": "transferFrom",
      "outputs": [],
      "stateMutability": "nonpayable",
      "type": "function"
    },
    {
      "inputs": [
        {
          "internalType": "address",
          "name": "newOwner",
          "type": "address"
        }
      ],
      "name": "transferOwnership",
      "outputs": [],
      "stateMutability": "nonpayable",
      "type": "function"
    },
    {
      "inputs": [],
      "name": "withdraw",
      "outputs": [],
      "stateMutability": "nonpayable",
      "type": "function"
    }
  ],
  "bytecode": "0x6080604052600060155560006016556000601d5561012c601e55604051806020016040528060008152506020908051906020019062000040929190620005e6565b503480156200004e57600080fd5b506040516200637438038062006374833981810160405281019062000074919062000833565b6040518060400160405280600681526020017f4c726f61747300000000000000000000000000000000000000000000000000008152506040518060400160405280600381526020017f4c524f00000000000000000000000000000000000000000000000000000000008152508160009080519060200190620000f8929190620005e6565b50806001908051906020019062000111929190620005e6565b5050506200013462000128620001d660201b60201c565b620001de60201b60201c565b82600d90805190602001906200014c929190620005e6565b5081600e908051906020019062000165929190620005e6565b5080600f90805190602001906200017e929190620005e6565b506200018f620002a460201b60201c565b601f81905550620001bd73c8a5592031f93debea5d9e67a396944ee01bb2ca6101f4620002ad60201b60201c565b620001cd6200045160201b60201c565b50505062000b65565b600033905090565b6000600a60009054906101000a900473ffffffffffffffffffffffffffffffffffffffff16905081600a60006101000a81548173ffffffffffffffffffffffffffffffffffffffff021916908373ffffffffffffffffffffffffffffffffffffffff1602179055508173ffffffffffffffffffffffffffffffffffffffff168173ffffffffffffffffffffffffffffffffffffffff167f8be0079c531659141344cd1fd0a4f28419497f9722a3daafe3b4186f6b6457e060405160405180910390a35050565b60006001905090565b620002bd6200052160201b60201c565b6bffffffffffffffffffffffff16816bffffffffffffffffffffffff1611156200031e576040517f08c379a0000000000000000000000000000000000000000000000000000000008152600401620003159062000973565b60405180910390fd5b600073ffffffffffffffffffffffffffffffffffffffff168273ffffffffffffffffffffffffffffffffffffffff16141562000391576040517f08c379a00000000000000000000000000000000000000000000000000000000081526004016200038890620009e5565b60405180910390fd5b60405180604001604052808373ffffffffffffffffffffffffffffffffffffffff168152602001826bffffffffffffffffffffffff16815250600b60008201518160000160006101000a81548173ffffffffffffffffffffffffffffffffffffffff021916908373ffffffffffffffffffffffffffffffffffffffff16021790555060208201518160000160146101000a8154816bffffffffffffffffffffffff02191690836bffffffffffffffffffffffff1602179055509050505050565b620004616200052b60201b60201c565b6000600190505b601e54811162000503576017819080600181540180825580915050600190039060005260206000200160009091909190915055601881908060018154018082558091505060019003906000526020600020016000909190919091505560198190806001815401808255809150506001900390600052602060002001600090919091909150558080620004fa9062000a40565b91505062000468565b50601e54601a81905550601e54601b81905550601e54601c81905550565b6000612710905090565b6200053b620001d660201b60201c565b73ffffffffffffffffffffffffffffffffffffffff1662000561620005bc60201b60201c565b73ffffffffffffffffffffffffffffffffffffffff1614620005ba576040517f08c379a0000000000000000000000000000000000000000000000000000000008152600401620005b19062000ade565b60405180910390fd5b565b6000600a60009054906101000a900473ffffffffffffffffffffffffffffffffffffffff16905090565b828054620005f49062000b2f565b90600052602060002090601f01602090048101928262000618576000855562000664565b82601f106200063357805160ff191683800117855562000664565b8280016001018555821562000664579182015b828111156200066357825182559160200191906001019062000646565b5b50905062000673919062000677565b5090565b5b808211156200069257600081600090555060010162000678565b5090565b6000604051905090565b600080fd5b600080fd5b600080fd5b600080fd5b6000601f19601f8301169050919050565b7f4e487b7100000000000000000000000000000000000000000000000000000000600052604160045260246000fd5b620006ff82620006b4565b810181811067ffffffffffffffff82111715620007215762000720620006c5565b5b80604052505050565b60006200073662000696565b9050620007448282620006f4565b919050565b600067ffffffffffffffff821115620007675762000766620006c5565b5b6200077282620006b4565b9050602081019050919050565b60005b838110156200079f57808201518184015260208101905062000782565b83811115620007af576000848401525b50505050565b6000620007cc620007c68462000749565b6200072a565b905082815260208101848484011115620007eb57620007ea620006af565b5b620007f88482856200077f565b509392505050565b600082601f830112620008185762000817620006aa565b5b81516200082a848260208601620007b5565b91505092915050565b6000806000606084860312156200084f576200084e620006a0565b5b600084015167ffffffffffffffff81111562000870576200086f620006a5565b5b6200087e8682870162000800565b935050602084015167ffffffffffffffff811115620008a257620008a1620006a5565b5b620008b08682870162000800565b925050604084015167ffffffffffffffff811115620008d457620008d3620006a5565b5b620008e28682870162000800565b9150509250925092565b600082825260208201905092915050565b7f455243323938313a20726f79616c7479206665652077696c6c2065786365656460008201527f2073616c65507269636500000000000000000000000000000000000000000000602082015250565b60006200095b602a83620008ec565b91506200096882620008fd565b604082019050919050565b600060208201905081810360008301526200098e816200094c565b9050919050565b7f455243323938313a20696e76616c696420726563656976657200000000000000600082015250565b6000620009cd601983620008ec565b9150620009da8262000995565b602082019050919050565b6000602082019050818103600083015262000a0081620009be565b9050919050565b7f4e487b7100000000000000000000000000000000000000000000000000000000600052601160045260246000fd5b6000819050919050565b600062000a4d8262000a36565b91507fffffffffffffffffffffffffffffffffffffffffffffffffffffffffffffffff82141562000a835762000a8262000a07565b5b600182019050919050565b7f4f776e61626c653a2063616c6c6572206973206e6f7420746865206f776e6572600082015250565b600062000ac6602083620008ec565b915062000ad38262000a8e565b602082019050919050565b6000602082019050818103600083015262000af98162000ab7565b9050919050565b7f4e487b7100000000000000000000000000000000000000000000000000000000600052602260045260246000fd5b6000600282049050600182168062000b4857607f821691505b6020821081141562000b5f5762000b5e62000b00565b5b50919050565b6157ff8062000b756000396000f3fe6080604052600436106102435760003560e01c80634ec0b50211610139578063a035b1fe116100b6578063cd5f23d01161007a578063cd5f23d01461084f578063d445b9781461087a578063dd8b4ccc146108b7578063e985e9c5146108e0578063f0c9dc601461091d578063f2fde38b1461094857610243565b8063a035b1fe14610779578063a0712d68146107a4578063a22cb465146107c0578063b88d4fde146107e9578063c87b56dd1461081257610243565b806370a08231116100fd57806370a08231146106a6578063715018a6146106e3578063867bc61f146106fa5780638da5cb5b1461072357806395d89b411461074e57610243565b80634ec0b502146105af5780634f6ccce7146105d857806350f7c204146106155780636102a401146106405780636352211e1461066957610243565b806317b08360116101c75780632f745c591161018b5780632f745c59146104de5780633ccfd60b1461051b57806342842e0e1461053257806342966c681461055b578063453c23101461058457610243565b806317b08360146103fa57806318160ddd1461042357806323b872dd1461044e578063283f72b0146104775780632a55205a146104a057610243565b8063081812fc1161020e578063081812fc1461032b578063095ea7b3146103685780630c7f38661461039157806310969523146103ba57806312df7b0c146103e357610243565b8062cbfab514610248578062d71cf814610271578062f55d9d1461029a57806301ffc9a7146102c357806306fdde0314610300575b600080fd5b34801561025457600080fd5b5061026f600480360381019061026a9190613faa565b610971565b005b34801561027d57600080fd5b506102986004803603810190610293919061411d565b610ca1565b005b3480156102a657600080fd5b506102c160048036038101906102bc91906141c4565b610cc3565b005b3480156102cf57600080fd5b506102ea60048036038101906102e59190614249565b610ce4565b6040516102f79190614291565b60405180910390f35b34801561030c57600080fd5b50610315610cf6565b6040516103229190614334565b60405180910390f35b34801561033757600080fd5b50610352600480360381019061034d9190613faa565b610d88565b60405161035f9190614365565b60405180910390f35b34801561037457600080fd5b5061038f600480360381019061038a9190614380565b610dce565b005b34801561039d57600080fd5b506103b860048036038101906103b39190613faa565b610ee6565b005b3480156103c657600080fd5b506103e160048036038101906103dc919061411d565b6112d4565b005b3480156103ef57600080fd5b506103f86112f6565b005b34801561040657600080fd5b50610421600480360381019061041c9190613faa565b6113ba565b005b34801561042f57600080fd5b50610438611437565b60405161044591906143cf565b60405180910390f35b34801561045a57600080fd5b50610475600480360381019061047091906143ea565b611444565b005b34801561048357600080fd5b5061049e60048036038101906104999190613faa565b6114a4565b005b3480156104ac57600080fd5b506104c760048036038101906104c2919061443d565b611879565b6040516104d592919061447d565b60405180910390f35b3480156104ea57600080fd5b5061050560048036038101906105009190614380565b611a64565b60405161051291906143cf565b60405180910390f35b34801561052757600080fd5b50610530611b09565b005b34801561053e57600080fd5b50610559600480360381019061055491906143ea565b611b60565b005b34801561056757600080fd5b50610582600480360381019061057d9190613faa565b611b80565b005b34801561059057600080fd5b50610599611bdc565b6040516105a691906143cf565b60405180910390f35b3480156105bb57600080fd5b506105d660048036038101906105d19190613faa565b611be1565b005b3480156105e457600080fd5b506105ff60048036038101906105fa9190613faa565b611c5e565b60405161060c91906143cf565b60405180910390f35b34801561062157600080fd5b5061062a611ccf565b60405161063791906143cf565b60405180910390f35b34801561064c57600080fd5b5061066760048036038101906106629190613faa565b611cd5565b005b34801561067557600080fd5b50610690600480360381019061068b9190613faa565b611d52565b60405161069d9190614365565b60405180910390f35b3480156106b257600080fd5b506106cd60048036038101906106c891906141c4565b611e04565b6040516106da91906143cf565b60405180910390f35b3480156106ef57600080fd5b506106f8611ebc565b005b34801561070657600080fd5b50610721600480360381019061071c919061411d565b611ed0565b005b34801561072f57600080fd5b50610738611ef2565b6040516107459190614365565b60405180910390f35b34801561075a57600080fd5b50610763611f1c565b6040516107709190614334565b60405180910390f35b34801561078557600080fd5b5061078e611fae565b60405161079b91906143cf565b60405180910390f35b6107be60048036038101906107b99190613faa565b611fb9565b005b3480156107cc57600080fd5b506107e760048036038101906107e291906144d2565b612373565b005b3480156107f557600080fd5b50610810600480360381019061080b91906145b3565b612389565b005b34801561081e57600080fd5b5061083960048036038101906108349190613faa565b6123eb565b6040516108469190614334565b60405180910390f35b34801561085b57600080fd5b50610864612830565b60405161087191906143cf565b60405180910390f35b34801561088657600080fd5b506108a1600480360381019061089c91906141c4565b612836565b6040516108ae91906143cf565b60405180910390f35b3480156108c357600080fd5b506108de60048036038101906108d9919061411d565b61284e565b005b3480156108ec57600080fd5b5061090760048036038101906109029190614636565b612870565b6040516109149190614291565b60405180910390f35b34801561092957600080fd5b50610932612904565b60405161093f9190614334565b60405180910390f35b34801561095457600080fd5b5061096f600480360381019061096a91906141c4565b612992565b005b3373ffffffffffffffffffffffffffffffffffffffff163273ffffffffffffffffffffffffffffffffffffffff16146109df576040517f08c379a00000000000000000000000000000000000000000000000000000000081526004016109d6906146c2565b60405180910390fd5b600015156013600083815260200190815260200160002060009054906101000a900460ff1615151415610a3e576040517f85307f2000000000000000000000000000000000000000000000000000000000815260040160405180910390fd5b600115156014600083815260200190815260200160002060009054906101000a900460ff1615151415610a9d576040517fedfe519500000000000000000000000000000000000000000000000000000000815260040160405180910390fd5b610aae610aa8612a16565b82612a1e565b610aed576040517f08c379a0000000000000000000000000000000000000000000000000000000008152600401610ae490614754565b60405180910390fd5b6000600a610af9612ab3565b610b0391906147a3565b9050610b446040518060400160405280600d81526020017f52616e646f6d206973202573200000000000000000000000000000000000000081525082612b09565b60018111610bef57610b5582611d52565b73ffffffffffffffffffffffffffffffffffffffff167faa3ee6226b1f996ba4690b41b52df54a5a7e5dcd135525a497161f9dca4cbaf083604051610b9a9190614820565b60405180910390a2610bab82611b80565b610bea6040518060400160405280601081526020017f544f4b454e202573204255524e4544200000000000000000000000000000000081525083612b09565b610c9d565b60006013600084815260200190815260200160002060006101000a81548160ff02191690831515021790555060126000838152602001908152602001600020546011600084815260200190815260200160002081905550610c4f82611d52565b73ffffffffffffffffffffffffffffffffffffffff167f5ecc7ccc5c9f779f918541c180ce29b159c150603527fe416be5e1ef917ece4e83604051610c9491906148c0565b60405180910390a25b5050565b610ca9612ba5565b80600d9080519060200190610cbf929190613ebd565b5050565b610ccb612ba5565b8073ffffffffffffffffffffffffffffffffffffffff16ff5b6000610cef82612c23565b9050919050565b606060008054610d059061491d565b80601f0160208091040260200160405190810160405280929190818152602001828054610d319061491d565b8015610d7e5780601f10610d5357610100808354040283529160200191610d7e565b820191906000526020600020905b815481529060010190602001808311610d6157829003601f168201915b5050505050905090565b6000610d9382612c9d565b6004600083815260200190815260200160002060009054906101000a900473ffffffffffffffffffffffffffffffffffffffff169050919050565b6000610dd982611d52565b90508073ffffffffffffffffffffffffffffffffffffffff168373ffffffffffffffffffffffffffffffffffffffff161415610e4a576040517f08c379a0000000000000000000000000000000000000000000000000000000008152600401610e41906149c1565b60405180910390fd5b8073ffffffffffffffffffffffffffffffffffffffff16610e69612a16565b73ffffffffffffffffffffffffffffffffffffffff161480610e985750610e9781610e92612a16565b612870565b5b610ed7576040517f08c379a0000000000000000000000000000000000000000000000000000000008152600401610ece90614a53565b60405180910390fd5b610ee18383612ce8565b505050565b3373ffffffffffffffffffffffffffffffffffffffff163273ffffffffffffffffffffffffffffffffffffffff1614610f54576040517f08c379a0000000000000000000000000000000000000000000000000000000008152600401610f4b906146c2565b60405180910390fd5b600115156014600083815260200190815260200160002060009054906101000a900460ff1615151415610fb3576040517fedfe519500000000000000000000000000000000000000000000000000000000815260040160405180910390fd5b600115156013600083815260200190815260200160002060009054906101000a900460ff1615151415611012576040517f0168b1a900000000000000000000000000000000000000000000000000000000815260040160405180910390fd5b61102361101d612a16565b82612a1e565b611062576040517f08c379a000000000000000000000000000000000000000000000000000000000815260040161105990614754565b60405180910390fd5b6101906016541061109f576040517f26974dc300000000000000000000000000000000000000000000000000000000815260040160405180910390fd5b6000600a6110ab612ab3565b6110b591906147a3565b90506110f66040518060400160405280600d81526020017f52616e646f6d206973202573200000000000000000000000000000000000000081525082612b09565b600481116111a15761110782611d52565b73ffffffffffffffffffffffffffffffffffffffff167faa3ee6226b1f996ba4690b41b52df54a5a7e5dcd135525a497161f9dca4cbaf08360405161114c9190614820565b60405180910390a261115d82611b80565b61119c6040518060400160405280601081526020017f544f4b454e202573204255524e4544200000000000000000000000000000000081525083612b09565b6112d0565b60016014600084815260200190815260200160002060006101000a81548160ff021916908315150217905550601c60008154809291906111e090614aa2565b9190505550610190601c54101561121d576019601c5490806001815401808255809150506001900390600052602060002001600090919091909150555b600060198054905061122d612ab3565b61123791906147a3565b90506019818154811061124d5761124c614aeb565b5b9060005260206000200154601160008581526020019081526020016000208190555061127881611cd5565b61128183611d52565b73ffffffffffffffffffffffffffffffffffffffff167f5ecc7ccc5c9f779f918541c180ce29b159c150603527fe416be5e1ef917ece4e846040516112c69190614b8c565b60405180910390a2505b5050565b6112dc612ba5565b80602090805190602001906112f2929190613ebd565b5050565b6112fe612ba5565b6000600190505b601e54811161139c57601781908060018154018082558091505060019003906000526020600020016000909190919091505560188190806001815401808255809150506001900390600052602060002001600090919091909150556019819080600181540180825580915050600190039060005260206000200160009091909190915055808061139490614aa2565b915050611305565b50601e54601a81905550601e54601b81905550601e54601c81905550565b601860016018805490506113ce9190614bba565b815481106113df576113de614aeb565b5b9060005260206000200154601882815481106113fe576113fd614aeb565b5b9060005260206000200181905550601880548061141e5761141d614bee565b5b6001900381819060005260206000200160009055905550565b6000600880549050905090565b61145561144f612a16565b82612a1e565b611494576040517f08c379a000000000000000000000000000000000000000000000000000000000815260040161148b90614754565b60405180910390fd5b61149f838383612da1565b505050565b3373ffffffffffffffffffffffffffffffffffffffff163273ffffffffffffffffffffffffffffffffffffffff1614611512576040517f08c379a0000000000000000000000000000000000000000000000000000000008152600401611509906146c2565b60405180910390fd5b6013600082815260200190815260200160002060009054906101000a900460ff161561156a576040517f8e24551000000000000000000000000000000000000000000000000000000000815260040160405180910390fd5b600115156014600083815260200190815260200160002060009054906101000a900460ff16151514156115c9576040517fedfe519500000000000000000000000000000000000000000000000000000000815260040160405180910390fd5b6115da6115d4612a16565b82612a1e565b611619576040517f08c379a000000000000000000000000000000000000000000000000000000000815260040161161090614754565b60405180910390fd5b6000600a611625612ab3565b61162f91906147a3565b90506116706040518060400160405280600d81526020017f52616e646f6d206973202573200000000000000000000000000000000000000081525082612b09565b6002811161171b5761168182611d52565b73ffffffffffffffffffffffffffffffffffffffff167faa3ee6226b1f996ba4690b41b52df54a5a7e5dcd135525a497161f9dca4cbaf0836040516116c69190614820565b60405180910390a26116d782611b80565b6117166040518060400160405280601081526020017f544f4b454e202573204255524e4544200000000000000000000000000000000081525083612b09565b611875565b60016013600084815260200190815260200160002060006101000a81548160ff021916908315150217905550601b600081548092919061175a90614aa2565b91905055506107e6601b541015611797576018601b5490806001815401808255809150506001900390600052602060002001600090919091909150555b60006018805490506117a7612ab3565b6117b191906147a3565b905060116000848152602001908152602001600020546012600085815260200190815260200160002081905550601881815481106117f2576117f1614aeb565b5b9060005260206000200154601160008581526020019081526020016000208190555061181d816113ba565b61182683611d52565b73ffffffffffffffffffffffffffffffffffffffff167f5ecc7ccc5c9f779f918541c180ce29b159c150603527fe416be5e1ef917ece4e8460405161186b9190614c8f565b60405180910390a2505b5050565b6000806000600c60008681526020019081526020016000206040518060400160405290816000820160009054906101000a900473ffffffffffffffffffffffffffffffffffffffff1673ffffffffffffffffffffffffffffffffffffffff1673ffffffffffffffffffffffffffffffffffffffff1681526020016000820160149054906101000a90046bffffffffffffffffffffffff166bffffffffffffffffffffffff166bffffffffffffffffffffffff16815250509050600073ffffffffffffffffffffffffffffffffffffffff16816000015173ffffffffffffffffffffffffffffffffffffffff161415611a0f57600b6040518060400160405290816000820160009054906101000a900473ffffffffffffffffffffffffffffffffffffffff1673ffffffffffffffffffffffffffffffffffffffff1673ffffffffffffffffffffffffffffffffffffffff1681526020016000820160149054906101000a90046bffffffffffffffffffffffff166bffffffffffffffffffffffff166bffffffffffffffffffffffff168152505090505b6000611a19613008565b6bffffffffffffffffffffffff1682602001516bffffffffffffffffffffffff1686611a459190614cbd565b611a4f9190614d17565b90508160000151819350935050509250929050565b6000611a6f83611e04565b8210611ab0576040517f08c379a0000000000000000000000000000000000000000000000000000000008152600401611aa790614dba565b60405180910390fd5b600660008473ffffffffffffffffffffffffffffffffffffffff1673ffffffffffffffffffffffffffffffffffffffff168152602001908152602001600020600083815260200190815260200160002054905092915050565b611b11612ba5565b60004790503373ffffffffffffffffffffffffffffffffffffffff166108fc829081150290604051600060405180830381858888f19350505050158015611b5c573d6000803e3d6000fd5b5050565b611b7b83838360405180602001604052806000815250612389565b505050565b611b91611b8b612a16565b82612a1e565b611bd0576040517f08c379a0000000000000000000000000000000000000000000000000000000008152600401611bc790614754565b60405180910390fd5b611bd981613012565b50565b600c81565b60176001601780549050611bf59190614bba565b81548110611c0657611c05614aeb565b5b906000526020600020015460178281548110611c2557611c24614aeb565b5b90600052602060002001819055506017805480611c4557611c44614bee565b5b6001900381819060005260206000200160009055905550565b6000611c68611437565b8210611ca9576040517f08c379a0000000000000000000000000000000000000000000000000000000008152600401611ca090614e4c565b60405180910390fd5b60088281548110611cbd57611cbc614aeb565b5b90600052602060002001549050919050565b6107e681565b60196001601980549050611ce99190614bba565b81548110611cfa57611cf9614aeb565b5b906000526020600020015460198281548110611d1957611d18614aeb565b5b90600052602060002001819055506019805480611d3957611d38614bee565b5b6001900381819060005260206000200160009055905550565b6000806002600084815260200190815260200160002060009054906101000a900473ffffffffffffffffffffffffffffffffffffffff169050600073ffffffffffffffffffffffffffffffffffffffff168173ffffffffffffffffffffffffffffffffffffffff161415611dfb576040517f08c379a0000000000000000000000000000000000000000000000000000000008152600401611df290614eb8565b60405180910390fd5b80915050919050565b60008073ffffffffffffffffffffffffffffffffffffffff168273ffffffffffffffffffffffffffffffffffffffff161415611e75576040517f08c379a0000000000000000000000000000000000000000000000000000000008152600401611e6c90614f4a565b60405180910390fd5b600360008373ffffffffffffffffffffffffffffffffffffffff1673ffffffffffffffffffffffffffffffffffffffff168152602001908152602001600020549050919050565b611ec4612ba5565b611ece600061312f565b565b611ed8612ba5565b80600f9080519060200190611eee929190613ebd565b5050565b6000600a60009054906101000a900473ffffffffffffffffffffffffffffffffffffffff16905090565b606060018054611f2b9061491d565b80601f0160208091040260200160405190810160405280929190818152602001828054611f579061491d565b8015611fa45780601f10611f7957610100808354040283529160200191611fa4565b820191906000526020600020905b815481529060010190602001808311611f8757829003601f168201915b5050505050905090565b662386f26fc1000081565b3373ffffffffffffffffffffffffffffffffffffffff163273ffffffffffffffffffffffffffffffffffffffff1614612027576040517f08c379a000000000000000000000000000000000000000000000000000000000815260040161201e906146c2565b60405180910390fd5b6107e681612033611437565b61203d9190614f6a565b111561207e576040517f08c379a00000000000000000000000000000000000000000000000000000000081526004016120759061500c565b60405180910390fd5b600c816010600061208d612a16565b73ffffffffffffffffffffffffffffffffffffffff1673ffffffffffffffffffffffffffffffffffffffff168152602001908152602001600020546120d29190614f6a565b1115612113576040517f08c379a000000000000000000000000000000000000000000000000000000000815260040161210a9061509e565b60405180910390fd5b6004811180612168575060046010600061212b612a16565b73ffffffffffffffffffffffffffffffffffffffff1673ffffffffffffffffffffffffffffffffffffffff16815260200190815260200160002054115b156121cf57662386f26fc100006004826121829190614bba565b61218c9190614cbd565b3410156121ce576040517f08c379a00000000000000000000000000000000000000000000000000000000081526004016121c590615130565b60405180910390fd5b5b6000806121da6131f5565b905060006121e66131f5565b90505b836121f26131f5565b6121fc9190614f6a565b8110156122cd57601a600081548092919061221690614aa2565b91905055506107e6601a541015612253576017601a5490806001815401808255809150506001900390600052602060002001600090919091909150555b601780549050612261612ab3565b61226b91906147a3565b92506017838154811061228157612280614aeb565b5b906000526020600020015460116000848152602001908152602001600020819055506122ac83611be1565b81806122b790614aa2565b92505080806122c590614aa2565b9150506121e9565b5060005b83811015612310576122e533601f546131ff565b601f60008154809291906122f890614aa2565b9190505550808061230890614aa2565b9150506122d1565b50826010600061231e612a16565b73ffffffffffffffffffffffffffffffffffffffff1673ffffffffffffffffffffffffffffffffffffffff16815260200190815260200160002060008282546123679190614f6a565b92505081905550505050565b61238561237e612a16565b838361321d565b5050565b61239a612394612a16565b83612a1e565b6123d9576040517f08c379a00000000000000000000000000000000000000000000000000000000081526004016123d090614754565b60405180910390fd5b6123e58484848461338a565b50505050565b606061242c6040518060400160405280600f81526020017f544f4b454e20494420697320257320000000000000000000000000000000000081525083612b09565b612435826133e6565b61246b576040517fa14c4b5000000000000000000000000000000000000000000000000000000000815260040160405180910390fd5b6000600d805461247a9061491d565b80601f01602080910402602001604051908101604052809291908181526020018280546124a69061491d565b80156124f35780601f106124c8576101008083540402835291602001916124f3565b820191906000526020600020905b8154815290600101906020018083116124d657829003601f168201915b50505050509050600015156013600085815260200190815260200160002060009054906101000a900460ff1615151480156125525750600015156014600085815260200190815260200160002060009054906101000a900460ff161515145b156125e957600d80546125649061491d565b80601f01602080910402602001604051908101604052809291908181526020018280546125909061491d565b80156125dd5780601f106125b2576101008083540402835291602001916125dd565b820191906000526020600020905b8154815290600101906020018083116125c057829003601f168201915b505050505090506127c5565b600115156013600085815260200190815260200160002060009054906101000a900460ff1615151480156126415750600015156014600085815260200190815260200160002060009054906101000a900460ff161515145b156126d857600e80546126539061491d565b80601f016020809104026020016040519081016040528092919081815260200182805461267f9061491d565b80156126cc5780601f106126a1576101008083540402835291602001916126cc565b820191906000526020600020905b8154815290600101906020018083116126af57829003601f168201915b505050505090506127c4565b600015156013600085815260200190815260200160002060009054906101000a900460ff1615151480156127305750600115156014600085815260200190815260200160002060009054906101000a900460ff161515145b156127c357600f80546127429061491d565b80601f016020809104026020016040519081016040528092919081815260200182805461276e9061491d565b80156127bb5780601f10612790576101008083540402835291602001916127bb565b820191906000526020600020905b81548152906001019060200180831161279e57829003601f168201915b505050505090505b5b5b6000601160008581526020019081526020016000205490506000825114156127fc5760405180602001604052806000815250612827565b8161280682613452565b6040516020016128179291906151d8565b6040516020818303038152906040525b92505050919050565b61019081565b60106020528060005260406000206000915090505481565b612856612ba5565b80600e908051906020019061286c929190613ebd565b5050565b6000600560008473ffffffffffffffffffffffffffffffffffffffff1673ffffffffffffffffffffffffffffffffffffffff16815260200190815260200160002060008373ffffffffffffffffffffffffffffffffffffffff1673ffffffffffffffffffffffffffffffffffffffff16815260200190815260200160002060009054906101000a900460ff16905092915050565b602080546129119061491d565b80601f016020809104026020016040519081016040528092919081815260200182805461293d9061491d565b801561298a5780601f1061295f5761010080835404028352916020019161298a565b820191906000526020600020905b81548152906001019060200180831161296d57829003601f168201915b505050505081565b61299a612ba5565b600073ffffffffffffffffffffffffffffffffffffffff168173ffffffffffffffffffffffffffffffffffffffff161415612a0a576040517f08c379a0000000000000000000000000000000000000000000000000000000008152600401612a0190615279565b60405180910390fd5b612a138161312f565b50565b600033905090565b600080612a2a83611d52565b90508073ffffffffffffffffffffffffffffffffffffffff168473ffffffffffffffffffffffffffffffffffffffff161480612a6c5750612a6b8185612870565b5b80612aaa57508373ffffffffffffffffffffffffffffffffffffffff16612a9284610d88565b73ffffffffffffffffffffffffffffffffffffffff16145b91505092915050565b600080334442601d54604051602001612acf9493929190615302565b6040516020818303038152906040528051906020012060001c9050601d6000815480929190612afd90614aa2565b91905055508091505090565b612ba18282604051602401612b1f929190615350565b6040516020818303038152906040527fb60e72cc000000000000000000000000000000000000000000000000000000007bffffffffffffffffffffffffffffffffffffffffffffffffffffffff19166020820180517bffffffffffffffffffffffffffffffffffffffffffffffffffffffff83818316178352505050506134ab565b5050565b612bad612a16565b73ffffffffffffffffffffffffffffffffffffffff16612bcb611ef2565b73ffffffffffffffffffffffffffffffffffffffff1614612c21576040517f08c379a0000000000000000000000000000000000000000000000000000000008152600401612c18906153cc565b60405180910390fd5b565b60007f2a55205a000000000000000000000000000000000000000000000000000000007bffffffffffffffffffffffffffffffffffffffffffffffffffffffff1916827bffffffffffffffffffffffffffffffffffffffffffffffffffffffff19161480612c965750612c95826134d4565b5b9050919050565b612ca6816133e6565b612ce5576040517f08c379a0000000000000000000000000000000000000000000000000000000008152600401612cdc90614eb8565b60405180910390fd5b50565b816004600083815260200190815260200160002060006101000a81548173ffffffffffffffffffffffffffffffffffffffff021916908373ffffffffffffffffffffffffffffffffffffffff160217905550808273ffffffffffffffffffffffffffffffffffffffff16612d5b83611d52565b73ffffffffffffffffffffffffffffffffffffffff167f8c5be1e5ebec7d5bd14f71427d1e84f3dd0314c0f7b2291e5b200ac8c7c3b92560405160405180910390a45050565b8273ffffffffffffffffffffffffffffffffffffffff16612dc182611d52565b73ffffffffffffffffffffffffffffffffffffffff1614612e17576040517f08c379a0000000000000000000000000000000000000000000000000000000008152600401612e0e9061545e565b60405180910390fd5b600073ffffffffffffffffffffffffffffffffffffffff168273ffffffffffffffffffffffffffffffffffffffff161415612e87576040517f08c379a0000000000000000000000000000000000000000000000000000000008152600401612e7e906154f0565b60405180910390fd5b612e9283838361354e565b612e9d600082612ce8565b6001600360008573ffffffffffffffffffffffffffffffffffffffff1673ffffffffffffffffffffffffffffffffffffffff1681526020019081526020016000206000828254612eed9190614bba565b925050819055506001600360008473ffffffffffffffffffffffffffffffffffffffff1673ffffffffffffffffffffffffffffffffffffffff1681526020019081526020016000206000828254612f449190614f6a565b92505081905550816002600083815260200190815260200160002060006101000a81548173ffffffffffffffffffffffffffffffffffffffff021916908373ffffffffffffffffffffffffffffffffffffffff160217905550808273ffffffffffffffffffffffffffffffffffffffff168473ffffffffffffffffffffffffffffffffffffffff167fddf252ad1be2c89b69c2b068fc378daa952ba7f163c4a11628f55a4df523b3ef60405160405180910390a461300383838361355e565b505050565b6000612710905090565b600061301d82611d52565b905061302b8160008461354e565b613036600083612ce8565b6001600360008373ffffffffffffffffffffffffffffffffffffffff1673ffffffffffffffffffffffffffffffffffffffff16815260200190815260200160002060008282546130869190614bba565b925050819055506002600083815260200190815260200160002060006101000a81549073ffffffffffffffffffffffffffffffffffffffff021916905581600073ffffffffffffffffffffffffffffffffffffffff168273ffffffffffffffffffffffffffffffffffffffff167fddf252ad1be2c89b69c2b068fc378daa952ba7f163c4a11628f55a4df523b3ef60405160405180910390a461312b8160008461355e565b5050565b6000600a60009054906101000a900473ffffffffffffffffffffffffffffffffffffffff16905081600a60006101000a81548173ffffffffffffffffffffffffffffffffffffffff021916908373ffffffffffffffffffffffffffffffffffffffff1602179055508173ffffffffffffffffffffffffffffffffffffffff168173ffffffffffffffffffffffffffffffffffffffff167f8be0079c531659141344cd1fd0a4f28419497f9722a3daafe3b4186f6b6457e060405160405180910390a35050565b6000601f54905090565b613219828260405180602001604052806000815250613563565b5050565b8173ffffffffffffffffffffffffffffffffffffffff168373ffffffffffffffffffffffffffffffffffffffff16141561328c576040517f08c379a00000000000000000000000000000000000000000000000000000000081526004016132839061555c565b60405180910390fd5b80600560008573ffffffffffffffffffffffffffffffffffffffff1673ffffffffffffffffffffffffffffffffffffffff16815260200190815260200160002060008473ffffffffffffffffffffffffffffffffffffffff1673ffffffffffffffffffffffffffffffffffffffff16815260200190815260200160002060006101000a81548160ff0219169083151502179055508173ffffffffffffffffffffffffffffffffffffffff168373ffffffffffffffffffffffffffffffffffffffff167f17307eab39ab6107e8899845ad3d59bd9653f200f220920489ca2b5937696c318360405161337d9190614291565b60405180910390a3505050565b613395848484612da1565b6133a1848484846135be565b6133e0576040517f08c379a00000000000000000000000000000000000000000000000000000000081526004016133d7906155ee565b60405180910390fd5b50505050565b60008073ffffffffffffffffffffffffffffffffffffffff166002600084815260200190815260200160002060009054906101000a900473ffffffffffffffffffffffffffffffffffffffff1673ffffffffffffffffffffffffffffffffffffffff1614159050919050565b606060a060405101806040526020810391506000825281835b60011561349657600184039350600a81066030018453600a810490508061349157613496565b61346b565b50828103602084039350808452505050919050565b60008151905060006a636f6e736f6c652e6c6f679050602083016000808483855afa5050505050565b60007f780e9d63000000000000000000000000000000000000000000000000000000007bffffffffffffffffffffffffffffffffffffffffffffffffffffffff1916827bffffffffffffffffffffffffffffffffffffffffffffffffffffffff19161480613547575061354682613755565b5b9050919050565b613559838383613837565b505050565b505050565b61356d838361394b565b61357a60008484846135be565b6135b9576040517f08c379a00000000000000000000000000000000000000000000000000000000081526004016135b0906155ee565b60405180910390fd5b505050565b60006135df8473ffffffffffffffffffffffffffffffffffffffff16613b25565b15613748578373ffffffffffffffffffffffffffffffffffffffff1663150b7a02613608612a16565b8786866040518563ffffffff1660e01b815260040161362a9493929190615663565b602060405180830381600087803b15801561364457600080fd5b505af192505050801561367557506040513d601f19601f8201168201806040525081019061367291906156c4565b60015b6136f8573d80600081146136a5576040519150601f19603f3d011682016040523d82523d6000602084013e6136aa565b606091505b506000815114156136f0576040517f08c379a00000000000000000000000000000000000000000000000000000000081526004016136e7906155ee565b60405180910390fd5b805181602001fd5b63150b7a0260e01b7bffffffffffffffffffffffffffffffffffffffffffffffffffffffff1916817bffffffffffffffffffffffffffffffffffffffffffffffffffffffff19161491505061374d565b600190505b949350505050565b60007f80ac58cd000000000000000000000000000000000000000000000000000000007bffffffffffffffffffffffffffffffffffffffffffffffffffffffff1916827bffffffffffffffffffffffffffffffffffffffffffffffffffffffff1916148061382057507f5b5e139f000000000000000000000000000000000000000000000000000000007bffffffffffffffffffffffffffffffffffffffffffffffffffffffff1916827bffffffffffffffffffffffffffffffffffffffffffffffffffffffff1916145b80613830575061382f82613b48565b5b9050919050565b613842838383613bb2565b600073ffffffffffffffffffffffffffffffffffffffff168373ffffffffffffffffffffffffffffffffffffffff1614156138855761388081613bb7565b6138c4565b8173ffffffffffffffffffffffffffffffffffffffff168373ffffffffffffffffffffffffffffffffffffffff16146138c3576138c28382613c00565b5b5b600073ffffffffffffffffffffffffffffffffffffffff168273ffffffffffffffffffffffffffffffffffffffff1614156139075761390281613d6d565b613946565b8273ffffffffffffffffffffffffffffffffffffffff168273ffffffffffffffffffffffffffffffffffffffff1614613945576139448282613e3e565b5b5b505050565b600073ffffffffffffffffffffffffffffffffffffffff168273ffffffffffffffffffffffffffffffffffffffff1614156139bb576040517f08c379a00000000000000000000000000000000000000000000000000000000081526004016139b29061573d565b60405180910390fd5b6139c4816133e6565b15613a04576040517f08c379a00000000000000000000000000000000000000000000000000000000081526004016139fb906157a9565b60405180910390fd5b613a106000838361354e565b6001600360008473ffffffffffffffffffffffffffffffffffffffff1673ffffffffffffffffffffffffffffffffffffffff1681526020019081526020016000206000828254613a609190614f6a565b92505081905550816002600083815260200190815260200160002060006101000a81548173ffffffffffffffffffffffffffffffffffffffff021916908373ffffffffffffffffffffffffffffffffffffffff160217905550808273ffffffffffffffffffffffffffffffffffffffff16600073ffffffffffffffffffffffffffffffffffffffff167fddf252ad1be2c89b69c2b068fc378daa952ba7f163c4a11628f55a4df523b3ef60405160405180910390a4613b216000838361355e565b5050565b6000808273ffffffffffffffffffffffffffffffffffffffff163b119050919050565b60007f01ffc9a7000000000000000000000000000000000000000000000000000000007bffffffffffffffffffffffffffffffffffffffffffffffffffffffff1916827bffffffffffffffffffffffffffffffffffffffffffffffffffffffff1916149050919050565b505050565b6008805490506009600083815260200190815260200160002081905550600881908060018154018082558091505060019003906000526020600020016000909190919091505550565b60006001613c0d84611e04565b613c179190614bba565b9050600060076000848152602001908152602001600020549050818114613cfc576000600660008673ffffffffffffffffffffffffffffffffffffffff1673ffffffffffffffffffffffffffffffffffffffff168152602001908152602001600020600084815260200190815260200160002054905080600660008773ffffffffffffffffffffffffffffffffffffffff1673ffffffffffffffffffffffffffffffffffffffff168152602001908152602001600020600084815260200190815260200160002081905550816007600083815260200190815260200160002081905550505b6007600084815260200190815260200160002060009055600660008573ffffffffffffffffffffffffffffffffffffffff1673ffffffffffffffffffffffffffffffffffffffff16815260200190815260200160002060008381526020019081526020016000206000905550505050565b60006001600880549050613d819190614bba565b9050600060096000848152602001908152602001600020549050600060088381548110613db157613db0614aeb565b5b906000526020600020015490508060088381548110613dd357613dd2614aeb565b5b906000526020600020018190555081600960008381526020019081526020016000208190555060096000858152602001908152602001600020600090556008805480613e2257613e21614bee565b5b6001900381819060005260206000200160009055905550505050565b6000613e4983611e04565b905081600660008573ffffffffffffffffffffffffffffffffffffffff1673ffffffffffffffffffffffffffffffffffffffff168152602001908152602001600020600083815260200190815260200160002081905550806007600084815260200190815260200160002081905550505050565b828054613ec99061491d565b90600052602060002090601f016020900481019282613eeb5760008555613f32565b82601f10613f0457805160ff1916838001178555613f32565b82800160010185558215613f32579182015b82811115613f31578251825591602001919060010190613f16565b5b509050613f3f9190613f43565b5090565b5b80821115613f5c576000816000905550600101613f44565b5090565b6000604051905090565b600080fd5b600080fd5b6000819050919050565b613f8781613f74565b8114613f9257600080fd5b50565b600081359050613fa481613f7e565b92915050565b600060208284031215613fc057613fbf613f6a565b5b6000613fce84828501613f95565b91505092915050565b600080fd5b600080fd5b6000601f19601f8301169050919050565b7f4e487b7100000000000000000000000000000000000000000000000000000000600052604160045260246000fd5b61402a82613fe1565b810181811067ffffffffffffffff8211171561404957614048613ff2565b5b80604052505050565b600061405c613f60565b90506140688282614021565b919050565b600067ffffffffffffffff82111561408857614087613ff2565b5b61409182613fe1565b9050602081019050919050565b82818337600083830152505050565b60006140c06140bb8461406d565b614052565b9050828152602081018484840111156140dc576140db613fdc565b5b6140e784828561409e565b509392505050565b600082601f83011261410457614103613fd7565b5b81356141148482602086016140ad565b91505092915050565b60006020828403121561413357614132613f6a565b5b600082013567ffffffffffffffff81111561415157614150613f6f565b5b61415d848285016140ef565b91505092915050565b600073ffffffffffffffffffffffffffffffffffffffff82169050919050565b600061419182614166565b9050919050565b6141a181614186565b81146141ac57600080fd5b50565b6000813590506141be81614198565b92915050565b6000602082840312156141da576141d9613f6a565b5b60006141e8848285016141af565b91505092915050565b60007fffffffff0000000000000000000000000000000000000000000000000000000082169050919050565b614226816141f1565b811461423157600080fd5b50565b6000813590506142438161421d565b92915050565b60006020828403121561425f5761425e613f6a565b5b600061426d84828501614234565b91505092915050565b60008115159050919050565b61428b81614276565b82525050565b60006020820190506142a66000830184614282565b92915050565b600081519050919050565b600082825260208201905092915050565b60005b838110156142e65780820151818401526020810190506142cb565b838111156142f5576000848401525b50505050565b6000614306826142ac565b61431081856142b7565b93506143208185602086016142c8565b61432981613fe1565b840191505092915050565b6000602082019050818103600083015261434e81846142fb565b905092915050565b61435f81614186565b82525050565b600060208201905061437a6000830184614356565b92915050565b6000806040838503121561439757614396613f6a565b5b60006143a5858286016141af565b92505060206143b685828601613f95565b9150509250929050565b6143c981613f74565b82525050565b60006020820190506143e460008301846143c0565b92915050565b60008060006060848603121561440357614402613f6a565b5b6000614411868287016141af565b9350506020614422868287016141af565b925050604061443386828701613f95565b9150509250925092565b6000806040838503121561445457614453613f6a565b5b600061446285828601613f95565b925050602061447385828601613f95565b9150509250929050565b60006040820190506144926000830185614356565b61449f60208301846143c0565b9392505050565b6144af81614276565b81146144ba57600080fd5b50565b6000813590506144cc816144a6565b92915050565b600080604083850312156144e9576144e8613f6a565b5b60006144f7858286016141af565b9250506020614508858286016144bd565b9150509250929050565b600067ffffffffffffffff82111561452d5761452c613ff2565b5b61453682613fe1565b9050602081019050919050565b600061455661455184614512565b614052565b90508281526020810184848401111561457257614571613fdc565b5b61457d84828561409e565b509392505050565b600082601f83011261459a57614599613fd7565b5b81356145aa848260208601614543565b91505092915050565b600080600080608085870312156145cd576145cc613f6a565b5b60006145db878288016141af565b94505060206145ec878288016141af565b93505060406145fd87828801613f95565b925050606085013567ffffffffffffffff81111561461e5761461d613f6f565b5b61462a87828801614585565b91505092959194509250565b6000806040838503121561464d5761464c613f6a565b5b600061465b858286016141af565b925050602061466c858286016141af565b9150509250929050565b7f43616e6e6f742062652063616c6c6564206279206120636f6e74726163740000600082015250565b60006146ac601e836142b7565b91506146b782614676565b602082019050919050565b600060208201905081810360008301526146db8161469f565b9050919050565b7f4552433732313a2063616c6c6572206973206e6f7420746f6b656e206f776e6560008201527f72206e6f7220617070726f766564000000000000000000000000000000000000602082015250565b600061473e602e836142b7565b9150614749826146e2565b604082019050919050565b6000602082019050818103600083015261476d81614731565b9050919050565b7f4e487b7100000000000000000000000000000000000000000000000000000000600052601260045260246000fd5b60006147ae82613f74565b91506147b983613f74565b9250826147c9576147c8614774565b5b828206905092915050565b7f546f6f206261642c20796f757220746f6b656e20676f74206275726e65640000600082015250565b600061480a601e836142b7565b9150614815826147d4565b602082019050919050565b600060408201905061483560008301846143c0565b8181036020830152614846816147fd565b905092915050565b7f4e6963652c20796f75207265737572656374656420746f6b656e20737563636560008201527f737366756c6c7900000000000000000000000000000000000000000000000000602082015250565b60006148aa6027836142b7565b91506148b58261484e565b604082019050919050565b60006040820190506148d560008301846143c0565b81810360208301526148e68161489d565b905092915050565b7f4e487b7100000000000000000000000000000000000000000000000000000000600052602260045260246000fd5b6000600282049050600182168061493557607f821691505b60208210811415614949576149486148ee565b5b50919050565b7f4552433732313a20617070726f76616c20746f2063757272656e74206f776e6560008201527f7200000000000000000000000000000000000000000000000000000000000000602082015250565b60006149ab6021836142b7565b91506149b68261494f565b604082019050919050565b600060208201905081810360008301526149da8161499e565b9050919050565b7f4552433732313a20617070726f76652063616c6c6572206973206e6f7420746f60008201527f6b656e206f776e6572206e6f7220617070726f76656420666f7220616c6c0000602082015250565b6000614a3d603e836142b7565b9150614a48826149e1565b604082019050919050565b60006020820190508181036000830152614a6c81614a30565b9050919050565b7f4e487b7100000000000000000000000000000000000000000000000000000000600052601160045260246000fd5b6000614aad82613f74565b91507fffffffffffffffffffffffffffffffffffffffffffffffffffffffffffffffff821415614ae057614adf614a73565b5b600182019050919050565b7f4e487b7100000000000000000000000000000000000000000000000000000000600052603260045260246000fd5b7f596f7520676f74206c75636b792c206d75746174696f6e20697320737563636560008201527f7373000000000000000000000000000000000000000000000000000000000000602082015250565b6000614b766022836142b7565b9150614b8182614b1a565b604082019050919050565b6000604082019050614ba160008301846143c0565b8181036020830152614bb281614b69565b905092915050565b6000614bc582613f74565b9150614bd083613f74565b925082821015614be357614be2614a73565b5b828203905092915050565b7f4e487b7100000000000000000000000000000000000000000000000000000000600052603160045260246000fd5b7f476f696e6720696e746f2072656772657373696f6e206f722064696c7574696f60008201527f6e00000000000000000000000000000000000000000000000000000000000000602082015250565b6000614c796021836142b7565b9150614c8482614c1d565b604082019050919050565b6000604082019050614ca460008301846143c0565b8181036020830152614cb581614c6c565b905092915050565b6000614cc882613f74565b9150614cd383613f74565b9250817fffffffffffffffffffffffffffffffffffffffffffffffffffffffffffffffff0483118215151615614d0c57614d0b614a73565b5b828202905092915050565b6000614d2282613f74565b9150614d2d83613f74565b925082614d3d57614d3c614774565b5b828204905092915050565b7f455243373231456e756d657261626c653a206f776e657220696e646578206f7560008201527f74206f6620626f756e6473000000000000000000000000000000000000000000602082015250565b6000614da4602b836142b7565b9150614daf82614d48565b604082019050919050565b60006020820190508181036000830152614dd381614d97565b9050919050565b7f455243373231456e756d657261626c653a20676c6f62616c20696e646578206f60008201527f7574206f6620626f756e64730000000000000000000000000000000000000000602082015250565b6000614e36602c836142b7565b9150614e4182614dda565b604082019050919050565b60006020820190508181036000830152614e6581614e29565b9050919050565b7f4552433732313a20696e76616c696420746f6b656e2049440000000000000000600082015250565b6000614ea26018836142b7565b9150614ead82614e6c565b602082019050919050565b60006020820190508181036000830152614ed181614e95565b9050919050565b7f4552433732313a2061646472657373207a65726f206973206e6f74206120766160008201527f6c6964206f776e65720000000000000000000000000000000000000000000000602082015250565b6000614f346029836142b7565b9150614f3f82614ed8565b604082019050919050565b60006020820190508181036000830152614f6381614f27565b9050919050565b6000614f7582613f74565b9150614f8083613f74565b9250827fffffffffffffffffffffffffffffffffffffffffffffffffffffffffffffffff03821115614fb557614fb4614a73565b5b828201905092915050565b7f43616e6e6f742065786365656420746f74616c20737570706c79000000000000600082015250565b6000614ff6601a836142b7565b915061500182614fc0565b602082019050919050565b6000602082019050818103600083015261502581614fe9565b9050919050565b7f43616e6e6f7420657863656564206d6178206d696e74207065722077616c6c6560008201527f7400000000000000000000000000000000000000000000000000000000000000602082015250565b60006150886021836142b7565b91506150938261502c565b604082019050919050565b600060208201905081810360008301526150b78161507b565b9050919050565b7f4d75737420646f6e61746520736f6d65204d61746963206966206d696e74696e60008201527f67206d6f7265207468656e2034206974656d7300000000000000000000000000602082015250565b600061511a6033836142b7565b9150615125826150be565b604082019050919050565b600060208201905081810360008301526151498161510d565b9050919050565b600081905092915050565b6000615166826142ac565b6151708185615150565b93506151808185602086016142c8565b80840191505092915050565b7f2e6a736f6e000000000000000000000000000000000000000000000000000000600082015250565b60006151c2600583615150565b91506151cd8261518c565b600582019050919050565b60006151e4828561515b565b91506151f0828461515b565b91506151fb826151b5565b91508190509392505050565b7f4f776e61626c653a206e6577206f776e657220697320746865207a65726f206160008201527f6464726573730000000000000000000000000000000000000000000000000000602082015250565b60006152636026836142b7565b915061526e82615207565b604082019050919050565b6000602082019050818103600083015261529281615256565b9050919050565b60008160601b9050919050565b60006152b182615299565b9050919050565b60006152c3826152a6565b9050919050565b6152db6152d682614186565b6152b8565b82525050565b6000819050919050565b6152fc6152f782613f74565b6152e1565b82525050565b600061530e82876152ca565b60148201915061531e82866152eb565b60208201915061532e82856152eb565b60208201915061533e82846152eb565b60208201915081905095945050505050565b6000604082019050818103600083015261536a81856142fb565b905061537960208301846143c0565b9392505050565b7f4f776e61626c653a2063616c6c6572206973206e6f7420746865206f776e6572600082015250565b60006153b66020836142b7565b91506153c182615380565b602082019050919050565b600060208201905081810360008301526153e5816153a9565b9050919050565b7f4552433732313a207472616e736665722066726f6d20696e636f72726563742060008201527f6f776e6572000000000000000000000000000000000000000000000000000000602082015250565b60006154486025836142b7565b9150615453826153ec565b604082019050919050565b600060208201905081810360008301526154778161543b565b9050919050565b7f4552433732313a207472616e7366657220746f20746865207a65726f2061646460008201527f7265737300000000000000000000000000000000000000000000000000000000602082015250565b60006154da6024836142b7565b91506154e58261547e565b604082019050919050565b60006020820190508181036000830152615509816154cd565b9050919050565b7f4552433732313a20617070726f766520746f2063616c6c657200000000000000600082015250565b60006155466019836142b7565b915061555182615510565b602082019050919050565b6000602082019050818103600083015261557581615539565b9050919050565b7f4552433732313a207472616e7366657220746f206e6f6e20455243373231526560008201527f63656976657220696d706c656d656e7465720000000000000000000000000000602082015250565b60006155d86032836142b7565b91506155e38261557c565b604082019050919050565b60006020820190508181036000830152615607816155cb565b9050919050565b600081519050919050565b600082825260208201905092915050565b60006156358261560e565b61563f8185615619565b935061564f8185602086016142c8565b61565881613fe1565b840191505092915050565b60006080820190506156786000830187614356565b6156856020830186614356565b61569260408301856143c0565b81810360608301526156a4818461562a565b905095945050505050565b6000815190506156be8161421d565b92915050565b6000602082840312156156da576156d9613f6a565b5b60006156e8848285016156af565b91505092915050565b7f4552433732313a206d696e7420746f20746865207a65726f2061646472657373600082015250565b60006157276020836142b7565b9150615732826156f1565b602082019050919050565b600060208201905081810360008301526157568161571a565b9050919050565b7f4552433732313a20746f6b656e20616c7265616479206d696e74656400000000600082015250565b6000615793601c836142b7565b915061579e8261575d565b602082019050919050565b600060208201905081810360008301526157c281615786565b905091905056fea2646970667358221220c13b4b87e5acaf4ec5a634e87a42109f4647635cf669b5386065bcf271a262a364736f6c63430008090033",
  "linkReferences": {},
  "deployedLinkReferences": {}
}