{
  "_format": "hh-sol-artifact-1",
  "contractName": "Raffle",
  "sourceName": "contracts/Raffle.sol",
  "abi": [
    {
      "inputs": [
        {
          "internalType": "address",
          "name": "_interface",
          "type": "address"
        }
      ],
      "stateMutability": "nonpayable",
      "type": "constructor"
    },
    {
      "anonymous": false,
      "inputs": [
        {
          "indexed": false,
          "internalType": "address",
          "name": "player",
          "type": "address"
        },
        {
          "indexed": false,
          "internalType": "string",
          "name": "message",
          "type": "string"
        }
      ],
      "name": "NewEntry",
      "type": "event"
    },
    {
      "anonymous": false,
      "inputs": [
        {
          "indexed": true,
          "internalType": "address",
          "name": "from",
          "type": "address"
        },
        {
          "indexed": true,
          "internalType": "address",
          "name": "to",
          "type": "address"
        }
      ],
      "name": "OwnershipTransferRequested",
      "type": "event"
    },
    {
      "anonymous": false,
      "inputs": [
        {
          "indexed": true,
          "internalType": "address",
          "name": "from",
          "type": "address"
        },
        {
          "indexed": true,
          "internalType": "address",
          "name": "to",
          "type": "address"
        }
      ],
      "name": "OwnershipTransferred",
      "type": "event"
    },
    {
      "anonymous": false,
      "inputs": [
        {
          "indexed": false,
          "internalType": "uint256",
          "name": "requestId",
          "type": "uint256"
        },
        {
          "indexed": false,
          "internalType": "uint256[]",
          "name": "randomWords",
          "type": "uint256[]"
        },
        {
          "indexed": false,
          "internalType": "uint256",
          "name": "payment",
          "type": "uint256"
        }
      ],
      "name": "RequestFulfilled",
      "type": "event"
    },
    {
      "anonymous": false,
      "inputs": [
        {
          "indexed": false,
          "internalType": "uint256",
          "name": "requestId",
          "type": "uint256"
        },
        {
          "indexed": false,
          "internalType": "uint32",
          "name": "numWords",
          "type": "uint32"
        }
      ],
      "name": "RequestSent",
      "type": "event"
    },
    {
      "anonymous": false,
      "inputs": [
        {
          "indexed": false,
          "internalType": "string",
          "name": "winner",
          "type": "string"
        },
        {
          "indexed": false,
          "internalType": "address",
          "name": "winnerAddy",
          "type": "address"
        },
        {
          "indexed": false,
          "internalType": "string",
          "name": "message",
          "type": "string"
        }
      ],
      "name": "Winner",
      "type": "event"
    },
    {
      "inputs": [],
      "name": "acceptOwnership",
      "outputs": [],
      "stateMutability": "nonpayable",
      "type": "function"
    },
    {
      "inputs": [
        {
          "internalType": "address",
          "name": "owner",
          "type": "address"
        }
      ],
      "name": "balanceOf",
      "outputs": [
        {
          "internalType": "uint256",
          "name": "",
          "type": "uint256"
        }
      ],
      "stateMutability": "view",
      "type": "function"
    },
    {
      "inputs": [],
      "name": "confirmWinner",
      "outputs": [],
      "stateMutability": "nonpayable",
      "type": "function"
    },
    {
      "inputs": [],
      "name": "croatsContract",
      "outputs": [
        {
          "internalType": "contract CroatsContract",
          "name": "",
          "type": "address"
        }
      ],
      "stateMutability": "view",
      "type": "function"
    },
    {
      "inputs": [
        {
          "internalType": "string",
          "name": "hash",
          "type": "string"
        }
      ],
      "name": "enterRaffle",
      "outputs": [],
      "stateMutability": "nonpayable",
      "type": "function"
    },
    {
      "inputs": [
        {
          "internalType": "uint256",
          "name": "_requestId",
          "type": "uint256"
        }
      ],
      "name": "getRequestStatus",
      "outputs": [
        {
          "internalType": "uint256",
          "name": "paid",
          "type": "uint256"
        },
        {
          "internalType": "bool",
          "name": "fulfilled",
          "type": "bool"
        },
        {
          "internalType": "uint256[]",
          "name": "randomWords",
          "type": "uint256[]"
        }
      ],
      "stateMutability": "view",
      "type": "function"
    },
    {
      "inputs": [
        {
          "internalType": "address",
          "name": "owner",
          "type": "address"
        },
        {
          "internalType": "uint256",
          "name": "index",
          "type": "uint256"
        }
      ],
      "name": "hashOfOwnerByIndex",
      "outputs": [
        {
          "internalType": "string",
          "name": "",
          "type": "string"
        }
      ],
      "stateMutability": "view",
      "type": "function"
    },
    {
      "inputs": [],
      "name": "lastRequestId",
      "outputs": [
        {
          "internalType": "uint256",
          "name": "",
          "type": "uint256"
        }
      ],
      "stateMutability": "view",
      "type": "function"
    },
    {
      "inputs": [],
      "name": "owner",
      "outputs": [
        {
          "internalType": "address",
          "name": "",
          "type": "address"
        }
      ],
      "stateMutability": "view",
      "type": "function"
    },
    {
      "inputs": [
        {
          "internalType": "string",
          "name": "",
          "type": "string"
        }
      ],
      "name": "profileHashes",
      "outputs": [
        {
          "internalType": "address",
          "name": "",
          "type": "address"
        }
      ],
      "stateMutability": "view",
      "type": "function"
    },
    {
      "inputs": [
        {
          "internalType": "uint256",
          "name": "_requestId",
          "type": "uint256"
        },
        {
          "internalType": "uint256[]",
          "name": "_randomWords",
          "type": "uint256[]"
        }
      ],
      "name": "rawFulfillRandomWords",
      "outputs": [],
      "stateMutability": "nonpayable",
      "type": "function"
    },
    {
      "inputs": [
        {
          "internalType": "uint256",
          "name": "",
          "type": "uint256"
        }
      ],
      "name": "requestIds",
      "outputs": [
        {
          "internalType": "uint256",
          "name": "",
          "type": "uint256"
        }
      ],
      "stateMutability": "view",
      "type": "function"
    },
    {
      "inputs": [],
      "name": "requestRandomWords",
      "outputs": [
        {
          "internalType": "uint256",
          "name": "requestId",
          "type": "uint256"
        }
      ],
      "stateMutability": "nonpayable",
      "type": "function"
    },
    {
      "inputs": [
        {
          "internalType": "uint256",
          "name": "",
          "type": "uint256"
        }
      ],
      "name": "s_requests",
      "outputs": [
        {
          "internalType": "uint256",
          "name": "paid",
          "type": "uint256"
        },
        {
          "internalType": "bool",
          "name": "fulfilled",
          "type": "bool"
        }
      ],
      "stateMutability": "view",
      "type": "function"
    },
    {
      "inputs": [
        {
          "internalType": "uint256",
          "name": "_id",
          "type": "uint256"
        }
      ],
      "name": "showHash",
      "outputs": [
        {
          "internalType": "string",
          "name": "",
          "type": "string"
        }
      ],
      "stateMutability": "view",
      "type": "function"
    },
    {
      "inputs": [],
      "name": "showTotalEntries",
      "outputs": [
        {
          "internalType": "uint256",
          "name": "",
          "type": "uint256"
        }
      ],
      "stateMutability": "view",
      "type": "function"
    },
    {
      "inputs": [],
      "name": "showWinner",
      "outputs": [
        {
          "internalType": "string",
          "name": "",
          "type": "string"
        },
        {
          "internalType": "address",
          "name": "",
          "type": "address"
        }
      ],
      "stateMutability": "view",
      "type": "function"
    },
    {
      "inputs": [
        {
          "internalType": "address",
          "name": "to",
          "type": "address"
        }
      ],
      "name": "transferOwnership",
      "outputs": [],
      "stateMutability": "nonpayable",
      "type": "function"
    },
    {
      "inputs": [],
      "name": "winner",
      "outputs": [
        {
          "internalType": "string",
          "name": "",
          "type": "string"
        }
      ],
      "stateMutability": "view",
      "type": "function"
    },
    {
      "inputs": [],
      "name": "winnerConfirmed",
      "outputs": [
        {
          "internalType": "bool",
          "name": "",
          "type": "bool"
        }
      ],
      "stateMutability": "view",
      "type": "function"
    },
    {
      "inputs": [],
      "name": "withdrawLink",
      "outputs": [],
      "stateMutability": "nonpayable",
      "type": "function"
    }
  ],
  "bytecode": "0x60c0604052620493e0600c60006101000a81548163ffffffff021916908363ffffffff1602179055506003600c60046101000a81548161ffff021916908361ffff1602179055506001600c60066101000a81548163ffffffff021916908363ffffffff16021790555073326c977e6efc84e512bb9c30f76e30c160ed06fb600c600a6101000a81548173ffffffffffffffffffffffffffffffffffffffff021916908373ffffffffffffffffffffffffffffffffffffffff16021790555073708701a1dff4f478de54383e49a627ed4852c816600d60006101000a81548173ffffffffffffffffffffffffffffffffffffffff021916908373ffffffffffffffffffffffffffffffffffffffff1602179055503480156200011f57600080fd5b506040516200351a3803806200351a8339818101604052810190620001459190620004d6565b33806000600c600a9054906101000a900473ffffffffffffffffffffffffffffffffffffffff16600d60009054906101000a900473ffffffffffffffffffffffffffffffffffffffff168173ffffffffffffffffffffffffffffffffffffffff1660808173ffffffffffffffffffffffffffffffffffffffff16815250508073ffffffffffffffffffffffffffffffffffffffff1660a08173ffffffffffffffffffffffffffffffffffffffff16815250505050600073ffffffffffffffffffffffffffffffffffffffff168273ffffffffffffffffffffffffffffffffffffffff16036200026b576040517f08c379a0000000000000000000000000000000000000000000000000000000008152600401620002629062000569565b60405180910390fd5b816000806101000a81548173ffffffffffffffffffffffffffffffffffffffff021916908373ffffffffffffffffffffffffffffffffffffffff160217905550600073ffffffffffffffffffffffffffffffffffffffff168173ffffffffffffffffffffffffffffffffffffffff1614620002f257620002f1816200033d60201b60201c565b5b50505080600260006101000a81548173ffffffffffffffffffffffffffffffffffffffff021916908373ffffffffffffffffffffffffffffffffffffffff16021790555050620005fd565b3373ffffffffffffffffffffffffffffffffffffffff168173ffffffffffffffffffffffffffffffffffffffff1603620003ae576040517f08c379a0000000000000000000000000000000000000000000000000000000008152600401620003a590620005db565b60405180910390fd5b80600160006101000a81548173ffffffffffffffffffffffffffffffffffffffff021916908373ffffffffffffffffffffffffffffffffffffffff1602179055508073ffffffffffffffffffffffffffffffffffffffff1660008054906101000a900473ffffffffffffffffffffffffffffffffffffffff1673ffffffffffffffffffffffffffffffffffffffff167fed8889f560326eb138920d842192f0eb3dd22b4f139c87a2c57538e05bae127860405160405180910390a350565b600080fd5b600073ffffffffffffffffffffffffffffffffffffffff82169050919050565b60006200049e8262000471565b9050919050565b620004b08162000491565b8114620004bc57600080fd5b50565b600081519050620004d081620004a5565b92915050565b600060208284031215620004ef57620004ee6200046c565b5b6000620004ff84828501620004bf565b91505092915050565b600082825260208201905092915050565b7f43616e6e6f7420736574206f776e657220746f207a65726f0000000000000000600082015250565b60006200055160188362000508565b91506200055e8262000519565b602082019050919050565b60006020820190508181036000830152620005848162000542565b9050919050565b7f43616e6e6f74207472616e7366657220746f2073656c66000000000000000000600082015250565b6000620005c360178362000508565b9150620005d0826200058b565b602082019050919050565b60006020820190508181036000830152620005f681620005b4565b9050919050565b60805160a051612edb6200063f600039600081816106af01528181610fa101528181611541015281816115620152611682015260006115050152612edb6000f3fe608060405234801561001057600080fd5b50600436106101375760003560e01c8063a168fa89116100b8578063dfbf53ae1161007c578063dfbf53ae1461032e578063e0c862891461034c578063f2fde38b1461036a578063f68b245b14610386578063fb98ca2c146103b6578063fc2a88c3146103d457610137565b8063a168fa8914610284578063b7e03264146102b5578063d48e2469146102d4578063d55c9c84146102f2578063d8a4676f146102fc57610137565b806379ba5097116100ff57806379ba5097146102045780637f7634ba1461020e5780638796ba8c1461022c5780638da5cb5b1461025c5780638dc654a21461027a57610137565b806312986b5b1461013c5780631ac2103c1461016c5780631fe543e31461018857806352189817146101a457806370a08231146101d4575b600080fd5b610156600480360381019061015191906119b7565b6103f2565b6040516101639190611a74565b60405180910390f35b61018660048036038101906101819190611bcb565b6104a2565b005b6101a2600480360381019061019d9190611cdc565b6106ad565b005b6101be60048036038101906101b99190611bcb565b610749565b6040516101cb9190611d79565b60405180910390f35b6101ee60048036038101906101e99190611dc0565b610792565b6040516101fb9190611dfc565b60405180910390f35b61020c610849565b005b6102166109de565b6040516102239190611e32565b60405180910390f35b610246600480360381019061024191906119b7565b6109f1565b6040516102539190611dfc565b60405180910390f35b610264610a15565b6040516102719190611d79565b60405180910390f35b610282610a3e565b005b61029e600480360381019061029991906119b7565b610ba6565b6040516102ac929190611e4d565b60405180910390f35b6102bd610bd7565b6040516102cb929190611e76565b60405180910390f35b6102dc610cb1565b6040516102e99190611f05565b60405180910390f35b6102fa610cd7565b005b610316600480360381019061031191906119b7565b610da1565b60405161032593929190611fde565b60405180910390f35b610336610ebb565b6040516103439190611a74565b60405180910390f35b610354610f49565b6040516103619190611dfc565b60405180910390f35b610384600480360381019061037f9190611dc0565b611181565b005b6103a0600480360381019061039b919061201c565b611195565b6040516103ad9190611a74565b60405180910390f35b6103be6112c2565b6040516103cb9190611dfc565b60405180910390f35b6103dc6112cf565b6040516103e99190611dfc565b60405180910390f35b6060600682815481106104085761040761205c565b5b90600052602060002001805461041d906120ba565b80601f0160208091040260200160405190810160405280929190818152602001828054610449906120ba565b80156104965780601f1061046b57610100808354040283529160200191610496565b820191906000526020600020905b81548152906001019060200180831161047957829003601f168201915b50505050509050919050565b6000600260009054906101000a900473ffffffffffffffffffffffffffffffffffffffff1673ffffffffffffffffffffffffffffffffffffffff166370a08231336040518263ffffffff1660e01b81526004016104ff9190611d79565b602060405180830381865afa15801561051c573d6000803e3d6000fd5b505050506040513d601f19601f820116820180604052508101906105409190612100565b11610580576040517f08c379a00000000000000000000000000000000000000000000000000000000081526004016105779061219f565b60405180910390fd5b3360038260405161059191906121fb565b908152602001604051809103902060006101000a81548173ffffffffffffffffffffffffffffffffffffffff021916908373ffffffffffffffffffffffffffffffffffffffff16021790555060068190806001815401808255809150506001900390600052602060002001600090919091909150908161061191906123b4565b5061061c33826112d5565b6001600560003373ffffffffffffffffffffffffffffffffffffffff1673ffffffffffffffffffffffffffffffffffffffff168152602001908152602001600020600082825461066c91906124b5565b925050819055507f769b4ea2959972434f65a9feeaabdadd5fc2d210126155362cf3514b4504e15a336040516106a29190612535565b60405180910390a150565b7f000000000000000000000000000000000000000000000000000000000000000073ffffffffffffffffffffffffffffffffffffffff163373ffffffffffffffffffffffffffffffffffffffff161461073b576040517f08c379a0000000000000000000000000000000000000000000000000000000008152600401610732906125af565b60405180910390fd5b6107458282611345565b5050565b6003818051602081018201805184825260208301602085012081835280955050505050506000915054906101000a900473ffffffffffffffffffffffffffffffffffffffff1681565b60008073ffffffffffffffffffffffffffffffffffffffff168273ffffffffffffffffffffffffffffffffffffffff1603610802576040517f08c379a00000000000000000000000000000000000000000000000000000000081526004016107f990612641565b60405180910390fd5b600560008373ffffffffffffffffffffffffffffffffffffffff1673ffffffffffffffffffffffffffffffffffffffff168152602001908152602001600020549050919050565b600160009054906101000a900473ffffffffffffffffffffffffffffffffffffffff1673ffffffffffffffffffffffffffffffffffffffff163373ffffffffffffffffffffffffffffffffffffffff16146108d9576040517f08c379a00000000000000000000000000000000000000000000000000000000081526004016108d0906126ad565b60405180910390fd5b60008060009054906101000a900473ffffffffffffffffffffffffffffffffffffffff169050336000806101000a81548173ffffffffffffffffffffffffffffffffffffffff021916908373ffffffffffffffffffffffffffffffffffffffff1602179055506000600160006101000a81548173ffffffffffffffffffffffffffffffffffffffff021916908373ffffffffffffffffffffffffffffffffffffffff1602179055503373ffffffffffffffffffffffffffffffffffffffff168173ffffffffffffffffffffffffffffffffffffffff167f8be0079c531659141344cd1fd0a4f28419497f9722a3daafe3b4186f6b6457e060405160405180910390a350565b600860009054906101000a900460ff1681565b600a8181548110610a0157600080fd5b906000526020600020016000915090505481565b60008060009054906101000a900473ffffffffffffffffffffffffffffffffffffffff16905090565b610a46611471565b6000600c600a9054906101000a900473ffffffffffffffffffffffffffffffffffffffff1690508073ffffffffffffffffffffffffffffffffffffffff1663a9059cbb338373ffffffffffffffffffffffffffffffffffffffff166370a08231306040518263ffffffff1660e01b8152600401610ac39190611d79565b602060405180830381865afa158015610ae0573d6000803e3d6000fd5b505050506040513d601f19601f82011682018060405250810190610b049190612100565b6040518363ffffffff1660e01b8152600401610b219291906126cd565b6020604051808303816000875af1158015610b40573d6000803e3d6000fd5b505050506040513d601f19601f82011682018060405250810190610b649190612722565b610ba3576040517f08c379a0000000000000000000000000000000000000000000000000000000008152600401610b9a9061279b565b60405180910390fd5b50565b60096020528060005260406000206000915090508060000154908060010160009054906101000a900460ff16905082565b60606000600760036007604051610bee919061283e565b908152602001604051809103902060009054906101000a900473ffffffffffffffffffffffffffffffffffffffff16818054610c29906120ba565b80601f0160208091040260200160405190810160405280929190818152602001828054610c55906120ba565b8015610ca25780601f10610c7757610100808354040283529160200191610ca2565b820191906000526020600020905b815481529060010190602001808311610c8557829003601f168201915b50505050509150915091509091565b600260009054906101000a900473ffffffffffffffffffffffffffffffffffffffff1681565b60036007604051610ce8919061283e565b908152602001604051809103902060009054906101000a900473ffffffffffffffffffffffffffffffffffffffff1673ffffffffffffffffffffffffffffffffffffffff163373ffffffffffffffffffffffffffffffffffffffff1614610d84576040517f08c379a0000000000000000000000000000000000000000000000000000000008152600401610d7b906128c7565b60405180910390fd5b6001600860006101000a81548160ff021916908315150217905550565b60008060606000600960008681526020019081526020016000206000015411610dff576040517f08c379a0000000000000000000000000000000000000000000000000000000008152600401610df690612933565b60405180910390fd5b600060096000868152602001908152602001600020604051806060016040529081600082015481526020016001820160009054906101000a900460ff1615151515815260200160028201805480602002602001604051908101604052809291908181526020018280548015610e9357602002820191906000526020600020905b815481526020019060010190808311610e7f575b5050505050815250509050806000015181602001518260400151935093509350509193909250565b60078054610ec8906120ba565b80601f0160208091040260200160405190810160405280929190818152602001828054610ef4906120ba565b8015610f415780601f10610f1657610100808354040283529160200191610f41565b820191906000526020600020905b815481529060010190602001808311610f2457829003601f168201915b505050505081565b6000610f53611471565b610f92600c60009054906101000a900463ffffffff16600c60049054906101000a900461ffff16600c60069054906101000a900463ffffffff16611501565b905060405180606001604052807f000000000000000000000000000000000000000000000000000000000000000073ffffffffffffffffffffffffffffffffffffffff16634306d354600c60009054906101000a900463ffffffff166040518263ffffffff1660e01b815260040161100a9190612972565b602060405180830381865afa158015611027573d6000803e3d6000fd5b505050506040513d601f19601f8201168201806040525081019061104b9190612100565b8152602001600015158152602001600067ffffffffffffffff81111561107457611073611aa0565b5b6040519080825280602002602001820160405280156110a25781602001602082028036833780820191505090505b50815250600960008381526020019081526020016000206000820151816000015560208201518160010160006101000a81548160ff02191690831515021790555060408201518160020190805190602001906110ff929190611903565b50905050600a81908060018154018082558091505060019003906000526020600020016000909190919091505580600b819055507fcc58b13ad3eab50626c6a6300b1d139cd6ebb1688a7cced9461c2f7e762665ee81600c60069054906101000a900463ffffffff1660405161117692919061298d565b60405180910390a190565b611189611471565b61119281611718565b50565b60606111a083610792565b82106111e1576040517f08c379a00000000000000000000000000000000000000000000000000000000081526004016111d890612a02565b60405180910390fd5b600460008473ffffffffffffffffffffffffffffffffffffffff1673ffffffffffffffffffffffffffffffffffffffff1681526020019081526020016000206000838152602001908152602001600020805461123c906120ba565b80601f0160208091040260200160405190810160405280929190818152602001828054611268906120ba565b80156112b55780601f1061128a576101008083540402835291602001916112b5565b820191906000526020600020905b81548152906001019060200180831161129857829003601f168201915b5050505050905092915050565b6000600680549050905090565b600b5481565b60006112e083610792565b905081600460008573ffffffffffffffffffffffffffffffffffffffff1673ffffffffffffffffffffffffffffffffffffffff1681526020019081526020016000206000838152602001908152602001600020908161133f91906123b4565b50505050565b600060096000848152602001908152602001600020600001541161139e576040517f08c379a000000000000000000000000000000000000000000000000000000000815260040161139590612933565b60405180910390fd5b60016009600084815260200190815260200160002060010160006101000a81548160ff021916908315150217905550806009600084815260200190815260200160002060020190805190602001906113f7929190611903565b5061141c8160008151811061140f5761140e61205c565b5b6020026020010151611844565b7f147eb1ff0c82f87f2b03e2c43f5a36488ff63ec6b730195fde4605f612f8db518282600960008681526020019081526020016000206000015460405161146593929190612a22565b60405180910390a15050565b60008054906101000a900473ffffffffffffffffffffffffffffffffffffffff1673ffffffffffffffffffffffffffffffffffffffff163373ffffffffffffffffffffffffffffffffffffffff16146114ff576040517f08c379a00000000000000000000000000000000000000000000000000000000081526004016114f690612aac565b60405180910390fd5b565b60007f000000000000000000000000000000000000000000000000000000000000000073ffffffffffffffffffffffffffffffffffffffff16634000aea07f00000000000000000000000000000000000000000000000000000000000000007f000000000000000000000000000000000000000000000000000000000000000073ffffffffffffffffffffffffffffffffffffffff16634306d354886040518263ffffffff1660e01b81526004016115b99190612972565b602060405180830381865afa1580156115d6573d6000803e3d6000fd5b505050506040513d601f19601f820116820180604052508101906115fa9190612100565b87878760405160200161160f93929190612ae9565b6040516020818303038152906040526040518463ffffffff1660e01b815260040161163c93929190612b75565b6020604051808303816000875af115801561165b573d6000803e3d6000fd5b505050506040513d601f19601f8201168201806040525081019061167f9190612722565b507f000000000000000000000000000000000000000000000000000000000000000073ffffffffffffffffffffffffffffffffffffffff1663fc2a88c36040518163ffffffff1660e01b8152600401602060405180830381865afa1580156116eb573d6000803e3d6000fd5b505050506040513d601f19601f8201168201806040525081019061170f9190612100565b90509392505050565b3373ffffffffffffffffffffffffffffffffffffffff168173ffffffffffffffffffffffffffffffffffffffff1603611786576040517f08c379a000000000000000000000000000000000000000000000000000000000815260040161177d90612bff565b60405180910390fd5b80600160006101000a81548173ffffffffffffffffffffffffffffffffffffffff021916908373ffffffffffffffffffffffffffffffffffffffff1602179055508073ffffffffffffffffffffffffffffffffffffffff1660008054906101000a900473ffffffffffffffffffffffffffffffffffffffff1673ffffffffffffffffffffffffffffffffffffffff167fed8889f560326eb138920d842192f0eb3dd22b4f139c87a2c57538e05bae127860405160405180910390a350565b6000600680549050826118579190612c4e565b90506006818154811061186d5761186c61205c565b5b90600052602060002001600790816118859190612caa565b507f3ddff8655d4da1f70a8d2f9a42465cac4801616ea420fa61b68ee951a056d6ed6007600360076040516118ba919061283e565b908152602001604051809103902060009054906101000a900473ffffffffffffffffffffffffffffffffffffffff166040516118f7929190612e62565b60405180910390a15050565b82805482825590600052602060002090810192821561193f579160200282015b8281111561193e578251825591602001919060010190611923565b5b50905061194c9190611950565b5090565b5b80821115611969576000816000905550600101611951565b5090565b6000604051905090565b600080fd5b600080fd5b6000819050919050565b61199481611981565b811461199f57600080fd5b50565b6000813590506119b18161198b565b92915050565b6000602082840312156119cd576119cc611977565b5b60006119db848285016119a2565b91505092915050565b600081519050919050565b600082825260208201905092915050565b60005b83811015611a1e578082015181840152602081019050611a03565b60008484015250505050565b6000601f19601f8301169050919050565b6000611a46826119e4565b611a5081856119ef565b9350611a60818560208601611a00565b611a6981611a2a565b840191505092915050565b60006020820190508181036000830152611a8e8184611a3b565b905092915050565b600080fd5b600080fd5b7f4e487b7100000000000000000000000000000000000000000000000000000000600052604160045260246000fd5b611ad882611a2a565b810181811067ffffffffffffffff82111715611af757611af6611aa0565b5b80604052505050565b6000611b0a61196d565b9050611b168282611acf565b919050565b600067ffffffffffffffff821115611b3657611b35611aa0565b5b611b3f82611a2a565b9050602081019050919050565b82818337600083830152505050565b6000611b6e611b6984611b1b565b611b00565b905082815260208101848484011115611b8a57611b89611a9b565b5b611b95848285611b4c565b509392505050565b600082601f830112611bb257611bb1611a96565b5b8135611bc2848260208601611b5b565b91505092915050565b600060208284031215611be157611be0611977565b5b600082013567ffffffffffffffff811115611bff57611bfe61197c565b5b611c0b84828501611b9d565b91505092915050565b600067ffffffffffffffff821115611c2f57611c2e611aa0565b5b602082029050602081019050919050565b600080fd5b6000611c58611c5384611c14565b611b00565b90508083825260208201905060208402830185811115611c7b57611c7a611c40565b5b835b81811015611ca45780611c9088826119a2565b845260208401935050602081019050611c7d565b5050509392505050565b600082601f830112611cc357611cc2611a96565b5b8135611cd3848260208601611c45565b91505092915050565b60008060408385031215611cf357611cf2611977565b5b6000611d01858286016119a2565b925050602083013567ffffffffffffffff811115611d2257611d2161197c565b5b611d2e85828601611cae565b9150509250929050565b600073ffffffffffffffffffffffffffffffffffffffff82169050919050565b6000611d6382611d38565b9050919050565b611d7381611d58565b82525050565b6000602082019050611d8e6000830184611d6a565b92915050565b611d9d81611d58565b8114611da857600080fd5b50565b600081359050611dba81611d94565b92915050565b600060208284031215611dd657611dd5611977565b5b6000611de484828501611dab565b91505092915050565b611df681611981565b82525050565b6000602082019050611e116000830184611ded565b92915050565b60008115159050919050565b611e2c81611e17565b82525050565b6000602082019050611e476000830184611e23565b92915050565b6000604082019050611e626000830185611ded565b611e6f6020830184611e23565b9392505050565b60006040820190508181036000830152611e908185611a3b565b9050611e9f6020830184611d6a565b9392505050565b6000819050919050565b6000611ecb611ec6611ec184611d38565b611ea6565b611d38565b9050919050565b6000611edd82611eb0565b9050919050565b6000611eef82611ed2565b9050919050565b611eff81611ee4565b82525050565b6000602082019050611f1a6000830184611ef6565b92915050565b600081519050919050565b600082825260208201905092915050565b6000819050602082019050919050565b611f5581611981565b82525050565b6000611f678383611f4c565b60208301905092915050565b6000602082019050919050565b6000611f8b82611f20565b611f958185611f2b565b9350611fa083611f3c565b8060005b83811015611fd1578151611fb88882611f5b565b9750611fc383611f73565b925050600181019050611fa4565b5085935050505092915050565b6000606082019050611ff36000830186611ded565b6120006020830185611e23565b81810360408301526120128184611f80565b9050949350505050565b6000806040838503121561203357612032611977565b5b600061204185828601611dab565b9250506020612052858286016119a2565b9150509250929050565b7f4e487b7100000000000000000000000000000000000000000000000000000000600052603260045260246000fd5b7f4e487b7100000000000000000000000000000000000000000000000000000000600052602260045260246000fd5b600060028204905060018216806120d257607f821691505b6020821081036120e5576120e461208b565b5b50919050565b6000815190506120fa8161198b565b92915050565b60006020828403121561211657612115611977565b5b6000612124848285016120eb565b91505092915050565b7f54686973206164647265737320646f65736e74206861766520616e792043726f60008201527f617473204e465473000000000000000000000000000000000000000000000000602082015250565b60006121896028836119ef565b91506121948261212d565b604082019050919050565b600060208201905081810360008301526121b88161217c565b9050919050565b600081905092915050565b60006121d5826119e4565b6121df81856121bf565b93506121ef818560208601611a00565b80840191505092915050565b600061220782846121ca565b915081905092915050565b60008190508160005260206000209050919050565b60006020601f8301049050919050565b600082821b905092915050565b6000600883026122747fffffffffffffffffffffffffffffffffffffffffffffffffffffffffffffffff82612237565b61227e8683612237565b95508019841693508086168417925050509392505050565b60006122b16122ac6122a784611981565b611ea6565b611981565b9050919050565b6000819050919050565b6122cb83612296565b6122df6122d7826122b8565b848454612244565b825550505050565b600090565b6122f46122e7565b6122ff8184846122c2565b505050565b5b81811015612323576123186000826122ec565b600181019050612305565b5050565b601f8211156123685761233981612212565b61234284612227565b81016020851015612351578190505b61236561235d85612227565b830182612304565b50505b505050565b600082821c905092915050565b600061238b6000198460080261236d565b1980831691505092915050565b60006123a4838361237a565b9150826002028217905092915050565b6123bd826119e4565b67ffffffffffffffff8111156123d6576123d5611aa0565b5b6123e082546120ba565b6123eb828285612327565b600060209050601f83116001811461241e576000841561240c578287015190505b6124168582612398565b86555061247e565b601f19841661242c86612212565b60005b828110156124545784890151825560018201915060208501945060208101905061242f565b86831015612471578489015161246d601f89168261237a565b8355505b6001600288020188555050505b505050505050565b7f4e487b7100000000000000000000000000000000000000000000000000000000600052601160045260246000fd5b60006124c082611981565b91506124cb83611981565b92508282019050808211156124e3576124e2612486565b5b92915050565b7f4e657720456e74727920696e20526166666c6500000000000000000000000000600082015250565b600061251f6013836119ef565b915061252a826124e9565b602082019050919050565b600060408201905061254a6000830184611d6a565b818103602083015261255b81612512565b905092915050565b7f6f6e6c792056524620563220777261707065722063616e2066756c66696c6c00600082015250565b6000612599601f836119ef565b91506125a482612563565b602082019050919050565b600060208201905081810360008301526125c88161258c565b9050919050565b7f41646472657373207a65726f206973206e6f7420612076616c6964206f776e6560008201527f7200000000000000000000000000000000000000000000000000000000000000602082015250565b600061262b6021836119ef565b9150612636826125cf565b604082019050919050565b6000602082019050818103600083015261265a8161261e565b9050919050565b7f4d7573742062652070726f706f736564206f776e657200000000000000000000600082015250565b60006126976016836119ef565b91506126a282612661565b602082019050919050565b600060208201905081810360008301526126c68161268a565b9050919050565b60006040820190506126e26000830185611d6a565b6126ef6020830184611ded565b9392505050565b6126ff81611e17565b811461270a57600080fd5b50565b60008151905061271c816126f6565b92915050565b60006020828403121561273857612737611977565b5b60006127468482850161270d565b91505092915050565b7f556e61626c6520746f207472616e736665720000000000000000000000000000600082015250565b60006127856012836119ef565b91506127908261274f565b602082019050919050565b600060208201905081810360008301526127b481612778565b9050919050565b600081546127c8816120ba565b6127d281866121bf565b945060018216600081146127ed576001811461280257612835565b60ff1983168652811515820286019350612835565b61280b85612212565b60005b8381101561282d5781548189015260018201915060208101905061280e565b838801955050505b50505092915050565b600061284a82846127bb565b915081905092915050565b7f41646472657373206f776e6572206973206e6f74207468652073616d6520617360008201527f2077696e6e657200000000000000000000000000000000000000000000000000602082015250565b60006128b16027836119ef565b91506128bc82612855565b604082019050919050565b600060208201905081810360008301526128e0816128a4565b9050919050565b7f72657175657374206e6f7420666f756e64000000000000000000000000000000600082015250565b600061291d6011836119ef565b9150612928826128e7565b602082019050919050565b6000602082019050818103600083015261294c81612910565b9050919050565b600063ffffffff82169050919050565b61296c81612953565b82525050565b60006020820190506129876000830184612963565b92915050565b60006040820190506129a26000830185611ded565b6129af6020830184612963565b9392505050565b7f4f776e657220696e646578206f7574206f6620626f756e647300000000000000600082015250565b60006129ec6019836119ef565b91506129f7826129b6565b602082019050919050565b60006020820190508181036000830152612a1b816129df565b9050919050565b6000606082019050612a376000830186611ded565b8181036020830152612a498185611f80565b9050612a586040830184611ded565b949350505050565b7f4f6e6c792063616c6c61626c65206279206f776e657200000000000000000000600082015250565b6000612a966016836119ef565b9150612aa182612a60565b602082019050919050565b60006020820190508181036000830152612ac581612a89565b9050919050565b600061ffff82169050919050565b612ae381612acc565b82525050565b6000606082019050612afe6000830186612963565b612b0b6020830185612ada565b612b186040830184612963565b949350505050565b600081519050919050565b600082825260208201905092915050565b6000612b4782612b20565b612b518185612b2b565b9350612b61818560208601611a00565b612b6a81611a2a565b840191505092915050565b6000606082019050612b8a6000830186611d6a565b612b976020830185611ded565b8181036040830152612ba98184612b3c565b9050949350505050565b7f43616e6e6f74207472616e7366657220746f2073656c66000000000000000000600082015250565b6000612be96017836119ef565b9150612bf482612bb3565b602082019050919050565b60006020820190508181036000830152612c1881612bdc565b9050919050565b7f4e487b7100000000000000000000000000000000000000000000000000000000600052601260045260246000fd5b6000612c5982611981565b9150612c6483611981565b925082612c7457612c73612c1f565b5b828206905092915050565b600081549050612c8e816120ba565b9050919050565b60008190508160005260206000209050919050565b818103612cb8575050612d90565b612cc182612c7f565b67ffffffffffffffff811115612cda57612cd9611aa0565b5b612ce482546120ba565b612cef828285612327565b6000601f831160018114612d1e5760008415612d0c578287015490505b612d168582612398565b865550612d89565b601f198416612d2c87612c95565b9650612d3786612212565b60005b82811015612d5f57848901548255600182019150600185019450602081019050612d3a565b86831015612d7c5784890154612d78601f89168261237a565b8355505b6001600288020188555050505b5050505050505b565b60008154612d9f816120ba565b612da981866119ef565b94506001821660008114612dc45760018114612dda57612e0d565b60ff198316865281151560200286019350612e0d565b612de385612212565b60005b83811015612e0557815481890152600182019150602081019050612de6565b808801955050505b50505092915050565b7f526166666c652057696e6e657200000000000000000000000000000000000000600082015250565b6000612e4c600d836119ef565b9150612e5782612e16565b602082019050919050565b60006060820190508181036000830152612e7c8185612d92565b9050612e8b6020830184611d6a565b8181036040830152612e9c81612e3f565b9050939250505056fea2646970667358221220596bc619fe6f6de60a0b80d4eed489dafd8a5c1b66e459622eefe99a52854b0064736f6c63430008110033",
  "linkReferences": {},
  "deployedLinkReferences": {}
}